:020000040800F2
:1000000000800120D9410008D92F0008E72F0008FF
:10001000ED2F0008F32F0008F92F00080000000062
:10002000000000000000000000000000FF2F00089A
:100030000D300008000000001B30000829300008C7
:100040002142000821420008214200082142000804
:1000500021420008214200082142000821420008F4
:1000600021420008214200082142000821420008E4
:1000700021420008214200082142000821420008D4
:1000800021420008214200082142000821420008C4
:1000900021420008214200082142000821420008B4
:1000A00021420008214200082142000821420008A4
:1000B0002142000821420008214200082142000894
:1000C0002142000821420008214200082142000884
:1000D0002142000821420008214200082142000874
:1000E0003530000821420008214200082142000862
:1000F0002142000821420008214200082142000854
:100100002142000821420008214200082142000843
:100110002142000821420008214200082142000833
:100120002142000821420008214200082142000823
:100130002142000821420008214200082142000813
:100140002142000821420008214200082142000803
:1001500021420008214200082142000821420008F3
:1001600021420008214200082142000821420008E3
:10017000214200082142000821420008000000003E
:080180002142000821420008A1
:1001900053B94AB9002908BF00281CBF4FF0FF31EE
:1001A0004FF0FF3000F00CB8ADF1080C6DE904CE53
:1001B00004F038F8DDF804E0DDE9022304B070470C
:1001C000704700BF000000000000000000000000B9
:1001D00001F0FF01102A2BDB10F0070F08D010F8F8
:1001E000013B013A8B422DD010F0070F42B3F6D1FC
:1001F000F0B441EA012141EA014122F007047FF015
:1002000000070023F0E80256083C85EA010586EA6B
:10021000010685FA47F5A3FA87F586FA47F6A5FAA7
:1002200087F68EB9EED1F0BC01F0FF0102F00702B3
:1002300032B110F8013B013A83EA010313B1F8D15E
:100240000020704701387047002D06BF354603383F
:10025000073815F0010F07D1013015F4807F02BF78
:10026000013015F4C03F0130F0BC0138704700BFC9
:100270000348044B834202D0034B03B11847704735
:100280009004002090040020000000000548064B68
:100290001B1AD90F01EBA301491002D0034B03B184
:1002A00018477047900400209004002000000000D0
:1002B00010B5064C237843B9FFF7DAFF044B13B1AE
:1002C0000448AFF300800123237010BDA005002077
:1002D00000000000BC4D000808B5054B1BB10549E6
:1002E0000548AFF30080BDE80840FFF7CFBF00BF6F
:1002F00000000000A4050020BC4D000870B50D4EA4
:100300000D4D761BB61006D0002455F8043B013481
:100310009847A642F9D1094E094D761B04F04EFDCF
:10032000B61006D0002455F8043B01349847A64285
:10033000F9D170BDB8560008B8560008BC56000880
:10034000B8560008830730B548D0541E002A3FD065
:10035000CAB2034601E0013C3AD303F8012B9D07E2
:10036000F9D1032C2DD9CDB245EA05250F2C45EA4C
:10037000054536D9A4F1100222F00F0C03F1200E2E
:10038000E6444FEA121C03F1100242E9045542E927
:10039000025510327245F8D10CF1010214F00C0F25
:1003A00003EB021204F00F0C13D0ACF1040323F0A2
:1003B00003030433134442F8045B9342FBD10CF073
:1003C00003042CB1C9B21C4403F8011B9C42FBD1AD
:1003D00030BD64461346002CF4D1F9E703461446B9
:1003E000BFE71A46A446E0E780B483B000AF786068
:1003F000022318460C37BD465DF8047B70470000A9
:1004000080B485B000AF78607B6803F00703FB60C1
:100410000C4BDB68BB60BA684FF6FF031340BB6050
:10042000FB681A02BB68134343F0BF6343F4003315
:10043000BB60044ABB68D36000BF1437BD465DF89B
:10044000047B704700ED00E080B400AF044BDB6834
:100450001B0A03F007031846BD465DF8047B70478E
:1004600000ED00E080B483B000AF0346FB7197F964
:100470000730002B0BDBFB7903F01F02074997F9CC
:1004800007305B09012000FA02F241F8232000BF87
:100490000C37BD465DF8047B704700BF00E100E00B
:1004A00080B483B000AF03463960FB7197F9073021
:1004B000002B0ADB3B68DAB20C4997F907301201CE
:1004C000D2B20B4483F800230AE03B68DAB2084951
:1004D000FB7903F00F03043B1201D2B20B441A76EE
:1004E00000BF0C37BD465DF8047B704700E100E0BB
:1004F00000ED00E080B489B000AFF860B9607A60C8
:10050000FB6803F00703FB61FB69C3F10703042BDE
:1005100028BF0423BB61FB690433062B02D9FB69A6
:10052000033B00E000237B614FF0FF32BB6902FA1E
:1005300003F3DA43BB681A407B699A404FF0FF31FE
:100540007B6901FA03F3D9437B680B4013431846D8
:100550002437BD465DF8047B7047000080B582B04B
:1005600000AF78607B68013BB3F1807F01D301234A
:100570000FE00A4A7B68013B53600F214FF0FF30C8
:10058000FFF78EFF054B00229A60044B07221A608A
:10059000002318460837BD4680BD00BF10E000E0CC
:1005A00080B582B000AF78607868FFF729FF00BFA0
:1005B0000837BD4680BD80B586B000AF0346B96040
:1005C0007A60FB7300237B61FFF73EFF78617A68F6
:1005D000B9687869FFF78EFF024697F90F30114628
:1005E0001846FFF75DFF00BF1837BD4680BD80B5D8
:1005F00082B000AF0346FB7197F907301846FFF74A
:1006000031FF00BF0837BD4680BD80B582B000AF66
:1006100078607868FFF7A2FF034618460837BD46A2
:1006200080BD000080B586B000AFF860B960C7E952
:10063000002300233B612F4B1B78012B01D10223A8
:1006400053E02C4B01221A704CF2503000F088F825
:100650000346FB75FB7D002B43D1264B00225A60DD
:10066000254B1B6803F48063002B09D0224B1B68C9
:10067000214A23F4806313601E4B02221A7702E0A2
:100680001C4B00221A77FB68002B07D1D7E9002307
:10069000B86800F0BDF801233B6110E0FB68012B56
:1006A00002D0FB68022B0AD13B681946B86800F0FB
:1006B000D5F8FB68022B02D14FF480233B614CF24A
:1006C000503000F04DF80346FB753B69002B06D017
:1006D000094B5A693B69DB43074913404B6100F002
:1006E000D5F9044B00221A70FB7D18461837BD4619
:1006F00080BD00BF300400200020024080B483B0E1
:1007000000AF0023FB710B4B5B69002B0BDA094B2D
:10071000094A9A60074B094A9A60064B5B69002BAD
:1007200001DA0123FB71FB7918460C37BD465DF8F1
:10073000047B70470020024023016745AB89EFCD61
:1007400080B400AF054B5B69044A43F0004353613A
:1007500000231846BD465DF8047B70470020024028
:1007600080B584B000AF786002F0D0F9F8600DE099
:100770007B68B3F1FF3F09D002F0C8F90246FB687D
:10078000D31A7A689A4201D8032337E01D4B1B69BC
:1007900003F48033B3F5803FEAD01A4B1A691A4B41
:1007A0001340BB60BB68002B1ED0184B5A68BB6857
:1007B0001343164A5360BB6803F04043002B07D035
:1007C000104B9A69BB6803F040430E4913438B6199
:1007D000BB6823F04043002B04D00A4ABB6823F0D7
:1007E00040431361012309E0064B1B6903F0010339
:1007F000012B02D1034B01221A6100231846103746
:10080000BD4680BD00200240FAC302003004002033
:1008100080B485B000AFF860C7E900230E4B5B6978
:100820000D4A43F001035361FB683A681A60BFF355
:100830006F8F00BFD7E900014FF000024FF00003B7
:100840000A000023F968043113460B6000BF143717
:10085000BD465DF8047B70470020024080B489B03B
:1008600000AF786039604023FB777B68BB613B68F1
:100870007B61144B5B69134A43F480235361EFF3AC
:100880001083FB60FB683B6172B600BF7B691A682E
:10089000BB691A60BB690433BB617B6904337B614C
:1008A000FB7F013BFB77FB7F002BEFD13B69BB60FC
:1008B000BB6883F3108800BF00BF2437BD465DF8D6
:1008C000047B70470020024080B584B000AF7860A0
:1008D00039604B4B1B78012B01D102238BE0484B35
:1008E00001221A704CF25030FFF73AFF0346FB73B7
:1008F000FB7B002B7BD1424B00225A60414B1B6893
:1009000003F40073002B19D03E4B1B683D4A23F4BF
:10091000007313603B4B1B6803F48063002B09D00A
:10092000384B1B68374A23F480631360344B03222F
:100930001A7716E0324B01221A7712E0314B1B680E
:1009400003F48063002B09D02E4B1B682D4A23F43F
:10095000806313602A4B02221A7702E0284B0022A0
:100960001A777B681B68012B11D17B685B6818467E
:1009700000F04AF84CF25030FFF7F2FE0346FB73EA
:10098000204B5B691F4A23F0040353612DE03B6851
:100990004FF0FF321A607B689B68BB601DE07B688C
:1009A0005B681946B86800F04DF84CF25030FFF71C
:1009B000D7FE0346FB73134B5B69124A23F4FF63B4
:1009C00023F002035361FB7B002B03D03B68BA6822
:1009D0001A600AE0BB680133BB607B689A687B6879
:1009E000DB681344BA689A42D9D300F04FF8044B3D
:1009F00000221A70FB7B18461037BD4680BD00BF31
:100A0000300400200020024080B483B000AF786042
:100A10007B6803F00103002B05D0094B5B69084A92
:100A200043F004035361064B5B69054A43F480338A
:100A3000536100BF0C37BD465DF8047B704700BFB3
:100A40000020024080B483B000AF786039600E4B64
:100A50005B6923F4FF627B68DB0003F4FF630A49F0
:100A600013434B61084B5B69074A43F00203536130
:100A7000054B5B69044A43F48033536100BF0C3774
:100A8000BD465DF8047B70470020024080B483B00F
:100A900000AF1E4B1B7FFB71FB79012B02D0FB7952
:100AA000032B11D11A4B1B68194A43F400631360DE
:100AB000174B1B68164A23F400631360144B1B6822
:100AC000134A43F400731360FB79022B02D0FB79C5
:100AD000032B11D10E4B1B680D4A43F48053136056
:100AE0000B4B1B680A4A23F480531360084B1B68A6
:100AF000074A43F480631360044B00221A7700BF57
:100B00000C37BD465DF8047B704700BF3004002001
:100B10000020024080B487B000AF786039600023C5
:100B20007B6154E13B681A6801217B6901FA03F398
:100B30001340FB60FB68002B00F046813B685B685C
:100B4000022B03D03B685B68122B23D17B69DA0848
:100B50007B68083253F822303B617B6903F007035E
:100B60009B000F2202FA03F3DB433A6913403B6117
:100B70003B681A697B6903F007039B0002FA03F3E1
:100B80003A6913433B617B69DA087B68083239694B
:100B900043F822107B681B683B617B695B00032282
:100BA00002FA03F3DB433A6913403B613B685B683D
:100BB00003F003027B695B0002FA03F33A69134313
:100BC0003B617B683A691A603B685B68012B0BD01C
:100BD0003B685B68022B07D03B685B68112B03D036
:100BE0003B685B68122B30D17B689B683B617B69FB
:100BF0005B00032202FA03F3DB433A6913403B61D3
:100C00003B68DA687B695B0002FA03F33A691343D5
:100C10003B617B683A699A607B685B683B61012253
:100C20007B6902FA03F3DB433A6913403B613B689B
:100C30005B681B0903F001027B6902FA03F33A695E
:100C400013433B617B683A695A607B68DB683B61B0
:100C50007B695B00032202FA03F3DB433A6913402A
:100C60003B613B689A687B695B0002FA03F33A696F
:100C700013433B617B683A69DA603B685B6803F069
:100C80008053002B00F0A080584B1B6E574A43F056
:100C900001031366554B1B6E03F00103BB60BB6879
:100CA000534A7B699B08023352F823303B617B69CE
:100CB00003F003039B000F2202FA03F3DB433A69BC
:100CC00013403B617B68B3F1904F19D07B68494A70
:100CD000934213D07B68484A93420DD07B68474AC1
:100CE000934207D07B68464A934201D1042308E02F
:100CF000072306E0032304E0022302E0012300E0CF
:100D000000237A6902F00302920093403A69134388
:100D10003B6137497B699B0802333A6941F82320DC
:100D2000384B1B683B61FB68DB433A6913403B610E
:100D30003B685B6803F48033002B03D03A69FB689F
:100D400013433B612F4A3B6913602E4B5B683B6149
:100D5000FB68DB433A6913403B613B685B6803F423
:100D60000033002B03D03A69FB6813433B61254AEB
:100D70003B695360234B9B683B61FB68DB433A69EB
:100D800013403B613B685B6803F48013002B03D086
:100D90003A69FB6813433B611A4A3B699360194BFC
:100DA000DB683B61FB68DB433A6913403B613B68AE
:100DB0005B6803F40013002B03D03A69FB6813430C
:100DC0003B61104A3B69D3607B6901337B613B68BF
:100DD0001A687B6922FA03F3002B7FF4A3AE00BFED
:100DE00000BF1C37BD465DF8047B70470010024011
:100DF000000001400004004800080048000C0048C2
:100E0000001000480004014080B487B000AF786053
:100E1000396000237B61B7E001227B6902FA03F3AA
:100E20003A6813403B613B69002B00F0AA805D4AA1
:100E30007B699B08023352F82330FB607B6903F027
:100E400003039B000F2202FA03F3FA681340FB60CE
:100E50007B68B3F1904F19D07B68534A934213D00B
:100E60007B68524A93420DD07B68514A934207D027
:100E70007B68504A934201D1042308E0072306E02F
:100E8000032304E0022302E0012300E000237A6947
:100E900002F0030292009340FA689A4232D1464B24
:100EA0001A683B69DB43444913400B60424B5A6864
:100EB0003B69DB43404913404B603F4B9A683B69B9
:100EC000DB433D4913408B603B4BDA683B69DB43B6
:100ED00039491340CB607B6903F003039B000F2269
:100EE00002FA03F3FB602F4A7B699B08023352F836
:100EF0002310FB68DA432B487B699B080A400233C6
:100F000040F823207B681A687B695B00032101FAA3
:100F100003F31A437B681A607B69DA087B6808323E
:100F200053F822107B6903F007039B000F2202FA9B
:100F300003F3DB437A69D20819407B68083243F82F
:100F400022107B689A687B695B00032101FA03F336
:100F5000DB431A407B689A607B685A6801217B6991
:100F600001FA03F3DB431A407B685A607B68DA6856
:100F70007B695B00032101FA03F3DB431A407B68C2
:100F8000DA607B6901337B613A687B6922FA03F39B
:100F9000002B7FF441AF00BF00BF1C37BD465DF89A
:100FA000047B70470000014000040048000800482E
:100FB000000C0048001000480004014080B483B0D9
:100FC00000AF78600B467B8013467B707B78002BEC
:100FD00003D07A887B689A6102E07A887B689A629B
:100FE00000BF0C37BD465DF8047B704780B483B00A
:100FF00000AF78600B467B807B685A697B88134022
:10100000002B03D07A887B689A6202E07A887B683A
:101010009A6100BF0C37BD465DF8047B7047000045
:1010200080B582B000AF0346FB80084B5A69FB884D
:101030001340002B06D0054AFB885361FB881846F5
:1010400000F006F800BF0837BD4680BD000401402F
:1010500080B483B000AF0346FB8000BF0C37BD46B1
:101060005DF8047B7047000080B400AF044B1B6840
:1010700003F4C0631846BD465DF8047B704700BFAB
:101080000070004080B588B000AF78607B68002BAE
:1010900002D1012300F010BC964B9B6803F00C03B7
:1010A000BB61944BDB6803F003037B617B681B68C7
:1010B00003F01003002B00F0E480BB69002B07D085
:1010C000BB690C2B40F08B807B69012B40F0878043
:1010D000884B1B6803F00203002B05D07B689B69DB
:1010E000002B01D10123E7E37B681A6A814B1B685F
:1010F00003F00803002B04D07E4B1B6803F0F003C1
:1011000005E07C4BD3F894301B0903F0F0039342C5
:1011100023D27B681B6A184600F07AFD0346002B39
:1011200001D00123C8E3734B1B68724A43F00803E4
:101130001360704B1B6823F0F0027B681B6A6D49DB
:1011400013430B606B4B5B6823F47F427B68DB6966
:101150001B02684913434B6025E0664B1B68654AD8
:1011600043F008031360634B1B6823F0F0027B68B5
:101170001B6A604913430B605E4B5B6823F47F423C
:101180007B68DB691B025B4913434B60BB69002B27
:1011900009D17B681B6A184600F03AFD0346002B14
:1011A00001D0012388E300F06FFC0246514B9B689D
:1011B0001B0903F00F035049CB5C03F01F0322FA15
:1011C00003F34E4A13604E4B1B68184601F052FC65
:1011D0000346FB73FB7B002B52D0FB7B6CE37B68ED
:1011E0009B69002B32D0434B1B68424A43F00103FA
:1011F000136001F08BFC386108E001F087FC0246C7
:101200003B69D31A022B01D9032355E3394B1B68E1
:1012100003F00203002BF0D0364B1B68354A43F035
:1012200008031360334B1B6823F0F0027B681B6AD2
:10123000304913430B602F4B5B6823F47F427B687C
:10124000DB691B022B4913434B601AE0294B1B68D7
:10125000284A23F00103136001F058FC386108E0CC
:1012600001F054FC02463B69D31A022B01D9032337
:1012700022E3204B1B6803F00203002BF0D100E0B7
:1012800000BF7B681B6803F00103002B73D0BB69B0
:10129000082B05D0BB690C2B0ED17B69032B0BD11E
:1012A000144B1B6803F40033002B63D07B685B682E
:1012B000002B5FD10123FFE27B685B68B3F5803FC1
:1012C00006D10C4B1B680B4A43F48033136025E0B6
:1012D0007B685B68B3F5A02F14D1064B1B68054AE9
:1012E00043F480231360034B1B68024A43F48033AA
:1012F000136013E000100240E04D00086C04002071
:1013000050040020A04B1B689F4A23F480331360D5
:101310009D4B1B689C4A23F4802313607B685B68A9
:10132000002B13D001F0F2FB386108E001F0EEFB76
:1013300002463B69D31A642B01D90323BCE2924BCA
:101340001B6803F40033002BF0D014E001F0DEFB47
:10135000386108E001F0DAFB02463B69D31A642BDE
:1013600001D90323A8E2884B1B6803F40033002B48
:10137000F0D100E000BF7B681B6803F00203002B84
:1013800060D0BB69042B05D0BB690C2B19D17B69DC
:10139000022B16D17C4B1B6803F48063002B05D015
:1013A0007B68DB68002B01D1012385E2764B5B680B
:1013B00023F0FE427B681B691B06734913434B6095
:1013C00040E07B68DB68002B23D06F4B1B686E4AC4
:1013D00043F48073136001F099FB386108E001F079
:1013E00095FB02463B69D31A022B01D9032363E222
:1013F000654B1B6803F48063002BF0D0624B5B6885
:1014000023F0FE427B681B691B065F4913434B6058
:1014100018E05D4B1B685C4A23F48073136001F095
:1014200075FB386108E001F071FB02463B69D31A95
:10143000022B01D903233FE2534B1B6803F4806363
:10144000002BF0D17B681B6803F00803002B3CD015
:101450007B685B69002B1CD04B4BD3F894304A4A15
:1014600043F00103C2F8943001F050FB386108E00A
:1014700001F04CFB02463B69D31A022B01D903232E
:101480001AE2414BD3F8943003F00203002BEFD063
:101490001BE03D4BD3F894303B4A23F00103C2F8E4
:1014A000943001F033FB386108E001F02FFB024675
:1014B0003B69D31A022B01D90323FDE1324BD3F848
:1014C000943003F00203002BEFD17B681B6803F01C
:1014D0000403002B00F0A6800023FB772A4B9B6DB2
:1014E00003F08053002B0DD1274B9B6D264A43F010
:1014F00080539365244B9B6D03F08053BB60BB68A6
:101500000123FB77214B1B6803F48073002B18D158
:101510001E4B1B681D4A43F48073136001F0F6FAFA
:10152000386108E001F0F2FA02463B69D31A022B57
:1015300001D90323C0E1154B1B6803F48073002B12
:10154000F0D07B689B68012B08D10F4BD3F890300B
:101550000D4A43F00103C2F8903029E07B689B6894
:10156000052B15D1084BD3F89030074A43F00403FC
:10157000C2F89030044BD3F89030034A43F0010393
:10158000C2F8903014E000BF00100240007000402C
:101590009A4BD3F89030994A23F00103C2F8903067
:1015A000964BD3F89030954A23F00403C2F890305C
:1015B0007B689B68002B16D001F0A8FA38610AE01E
:1015C00001F0A4FA02463B69D31A41F288329342F1
:1015D00001D9032370E1894BD3F8903003F0020363
:1015E000002BEDD015E001F091FA38610AE001F02E
:1015F0008DFA02463B69D31A41F28832934201D9EF
:10160000032359E17D4BD3F8903003F00203002B04
:10161000EDD1FB7F012B05D1784B9B6D774A23F0F1
:10162000805393657B681B6803F02003002B3CD03C
:101630007B685B6A002B1CD0704BD3F898306F4AE4
:1016400043F00103C2F8983001F060FA386108E015
:1016500001F05CFA02463B69D31A022B01D903233D
:101660002AE1664BD3F8983003F00203002BEFD049
:101670001BE0624BD3F89830604A23F00103C2F8B4
:10168000983001F043FA386108E001F03FFA024671
:101690003B69D31A022B01D903230DE1574BD3F831
:1016A000983003F00203002BEFD17B689B6A002B7C
:1016B00000F001817B689B6A022B40F0C9804F4B90
:1016C000DB687B617B6903F003027B68DB6A9A421B
:1016D0002CD17B6903F070027B681B6B013B1B0103
:1016E0009A4223D17B6903F4FE427B685B6B1B0249
:1016F0009A421BD17B6903F078427B689B6BDB06C7
:101700009A4213D17B6903F4C0027B68DB6B5B08F0
:10171000013B5B059A4209D17B6903F0C0627B689B
:101720001B6C5B08013B5B069A426BD0BB690C2BC0
:1017300062D0324B1B6803F08063002B01D0012381
:10174000BAE02E4B1B682D4A23F08073136001F022
:10175000DDF9386108E001F0D9F902463B69D31A96
:10176000022B01D90323A7E0244B1B6803F000736D
:10177000002BF0D1214BDA68214B13407A68D16AF3
:101780007A68126B013A120111437A68526B1202A5
:1017900011437A68D26B5208013A520511437A68B4
:1017A000126C5208013A520611437A68926BD206C3
:1017B0000A4312491343CB60104B1B680F4A43F096
:1017C000807313600D4BDB680C4A43F08073D36069
:1017D00001F09CF9386108E001F098F902463B6994
:1017E000D31A022B01D9032366E0044B1B6803F0D4
:1017F0000073002BF0D05EE001235DE0001002409A
:101800008C809D012E4B1B6803F00073002B52D17E
:101810002B4B1B682A4A43F080731360284BDB680C
:10182000274A43F08073D36001F070F9386108E013
:1018300001F06CF902463B69D31A022B01D903234C
:101840003AE01F4B1B6803F00073002BF0D032E02E
:10185000BB690C2B2DD01A4B1B68194A23F08073DF
:101860001360174B1B6803F00063002B05D1144B6A
:10187000DB68134A23F00303D360114BDB68104A83
:1018800023F0887323F48033D36001F03FF938618B
:1018900008E001F03BF902463B69D31A022B01D95B
:1018A000032309E0064B1B6803F00073002BF0D103
:1018B00001E0012300E0002318462037BD4680BD2B
:1018C0000010024080B584B000AF786039607B685A
:1018D000002B01D10123C8E0664B1B6803F007030E
:1018E0003A689A4210D9634B1B6823F0070261499A
:1018F0003B6813430B605F4B1B6803F007033A68B8
:101900009A4201D00123B0E07B681B6803F0010319
:10191000002B4CD07B685B68032B07D1564B1B68B0
:1019200003F00073002B21D101239EE07B685B68EC
:10193000022B07D1504B1B6803F40033002B15D149
:10194000012392E07B685B68002B07D14A4B1B6840
:1019500003F00203002B09D1012386E0464B1B68EC
:1019600003F48063002B01D101237EE0424B9B688E
:1019700023F003027B685B683F4913438B6001F0EF
:10198000C5F8F8600AE001F0C1F80246FB68D31A16
:1019900041F28832934201D9032366E0364B9B68BB
:1019A00003F00C027B685B689B009A42EBD17B687A
:1019B0001B6803F00203002B08D02F4B9B6823F019
:1019C000F0027B689B682C4913438B60294B1B6892
:1019D00003F007033A689A4210D2264B1B6823F0A3
:1019E000070224493B6813430B60224B1B6803F03A
:1019F00007033A689A4201D0012336E07B681B68EE
:101A000003F00403002B08D01B4B9B6823F4E06217
:101A10007B68DB68184913438B607B681B6803F0A5
:101A20000803002B09D0144B9B6823F460527B6899
:101A30001B69DB00104913438B6000F025F8024658
:101A40000D4B9B681B0903F00F030C49CB5C03F0A3
:101A50001F0322FA03F30A4A13600A4B1B68184655
:101A600001F008F80346FB72FB7A18461037BD46B2
:101A700080BD00BF0020024000100240E04D000881
:101A80006C0400205004002080B489B000AF002313
:101A9000FB610023BB613E4B9B6803F00C033B6181
:101AA0003B4BDB6803F00303FB603B69002B05D075
:101AB0003B690C2B21D1FB68012B1ED1344B1B68D9
:101AC00003F00803002B07D1314BD3F894301B0AE5
:101AD00003F00F03FB6105E02D4B1B681B0903F0AE
:101AE0000F03FB612B4AFB6952F82330FB613B6912
:101AF000002B0DD1FB69BB610AE03B69042B02D1CD
:101B0000254BBB6104E03B69082B01D1234BBB6132
:101B10003B690C2B34D11E4BDB6803F00303BB6025
:101B2000BB68022B03D0BB68032B03D005E01A4B24
:101B30007B6105E0194B7B6102E0FB697B6100BFC3
:101B4000134BDB681B0903F0070301337B60104B69
:101B5000DB681B0A03F07F037A6903FB02F27B68F0
:101B6000B2FBF3F37B610A4BDB685B0E03F003030C
:101B700001335B003B607A693B68B2FBF3F3BB6106
:101B8000BB6918462437BD465DF8047B704700BF2B
:101B900000100240F84D00080024F40000127A0002
:101BA00080B400AF034B1B681846BD465DF8047B4C
:101BB000704700BF6C04002080B500AFFFF7F0FF56
:101BC0000246064B9B681B0A03F007030449CB5CE3
:101BD00003F01F0322FA03F3184680BD00100240F1
:101BE000F04D000880B500AFFFF7DAFF0246064B64
:101BF0009B68DB0A03F007030449CB5C03F01F0377
:101C000022FA03F3184680BD00100240F04D000890
:101C100080B586B000AF786000233B612A4B9B6D96
:101C200003F08053002B03D0FFF71EFA786114E015
:101C3000254B9B6D244A43F080539365224B9B6D4B
:101C400003F08053FB60FB68FFF70EFA78611E4BD0
:101C50009B6D1D4A23F0805393657B69B3F5007F2C
:101C60000BD17B68802B19D97B68A02B02D902236A
:101C70003B6113E001233B6110E07B68802B02D9BC
:101C800003233B610AE07B68802B02D102233B6186
:101C900004E07B68702B01D101233B610B4B1B6877
:101CA00023F0070209493B6913430B60074B1B688C
:101CB00003F007033A699A4201D0012300E00023B0
:101CC00018461837BD4680BD001002400020024073
:101CD00080B582B000AF78607B68002B01D1012312
:101CE00040E07B685B6F002B06D17B68002283F8A5
:101CF0007020786801F002F97B6824225A677B68BB
:101D00001B681A687B681B6822F001021A607868F9
:101D100000F0C2F90346012B01D1012322E07B68C8
:101D20005B6A002B02D0786800F022FD7B681B689C
:101D30005A687B681B6822F490425A607B681B6873
:101D40009A687B681B6822F02A029A607B681B688D
:101D50001A687B681B6842F001021A60786800F01C
:101D6000A9FD034618460837BD4680BD80B582B040
:101D700000AF78607B68002B01D1012327E07B68EE
:101D800024225A677B681B681A687B681B6822F0EC
:101D900001021A607B681B6800221A607B681B685E
:101DA00000225A607B681B6800229A60786801F004
:101DB000F1F87B680022DA677B6800225A677B684B
:101DC00000229A677B68002283F87020002318465F
:101DD0000837BD4680BD80B58AB002AFF860B960F3
:101DE0003B601346FB80FB685B6F202B40F08180DB
:101DF000BB68002B02D0FB88002B01D1012379E0C6
:101E0000FB6893F87030012B01D1022372E0FB686C
:101E1000012283F87020FB680022DA67FB68212228
:101E20005A6700F073FE7861FB68FA88A3F85020C7
:101E3000FB68FA88A3F85220FB689B68B3F5805FC3
:101E400008D1FB681B69002B04D10023FB61BB6830
:101E5000BB6103E0BB68FB610023BB61FB68002240
:101E600083F870202DE03B6800937B69002280217D
:101E7000F86800F064FD0346002B01D0032339E02D
:101E8000FB69002B0BD1BB691A88FB681B68C2F386
:101E9000080292B21A85BB690233BB6108E0FB6994
:101EA0001A78FB681B6892B21A85FB690133FB61E3
:101EB000FB68B3F852309BB2013B9AB2FB68A3F8BF
:101EC0005220FB68B3F852309BB2002BCBD13B6859
:101ED00000937B6900224021F86800F030FD034642
:101EE000002B01D0032305E0FB6820225A67002362
:101EF00000E0022318462037BD4680BD80B58AB079
:101F000002AFF860B9603B601346FB80FB689B6FD3
:101F1000202B40F0BB80BB68002B02D0FB88002B3D
:101F200001D10123B3E0FB6893F87030012B01D19C
:101F30000223ACE0FB68012283F87020FB680022DA
:101F4000DA67FB6822229A6700F0E0FD7861FB689F
:101F5000FA88A3F85820FB68FA88A3F85A20FB688F
:101F60009B68B3F5805F0ED1FB681B69002B05D120
:101F7000FB6840F2FF12A3F85C202DE0FB68FF2213
:101F8000A3F85C2028E0FB689B68002B0DD1FB6860
:101F90001B69002B04D1FB68FF22A3F85C201BE027
:101FA000FB687F22A3F85C2016E0FB689B68B3F116
:101FB000805F0DD1FB681B69002B04D1FB687F2279
:101FC000A3F85C2008E0FB683F22A3F85C2003E054
:101FD000FB680022A3F85C20FB68B3F85C307B82CE
:101FE000FB689B68B3F5805F08D1FB681B69002B19
:101FF00004D10023FB61BB68BB6103E0BB68FB61EC
:102000000023BB61FB68002283F8702033E03B684B
:1020100000937B6900222021F86800F090FC0346C1
:10202000002B01D0032332E0FB69002B0CD1FB68AD
:102030001B689B8C9AB27B8A13409AB2BB691A8048
:10204000BB690233BB610DE0FB681B689B8C9BB2D4
:10205000DAB27B8ADBB21340DAB2FB691A70FB6931
:102060000133FB61FB68B3F85A309BB2013B9AB273
:10207000FB68A3F85A20FB68B3F85A309BB2002BD8
:10208000C5D1FB6820229A67002300E0022318468E
:102090002037BD4680BD00002DE9B04FA0B000AF95
:1020A000F86500237B67002387F873300023FB6605
:1020B000FB6D9A68FB6D1B691A43FB6D5B691A43E4
:1020C000FB6DDB691343FB67FB6D1B681B68A54950
:1020D0001940FB6D1A68FB6F0B431360FB6D1B68A7
:1020E0005B6823F44050FB6DD968FB6D1A6840EAC9
:1020F00001035360FB6D9B69FB67FB6D1A689A4B8C
:102100009A4204D0FB6D1A6AFB6F1343FB67FB6DA9
:102110001B689B6823F43061FB6D1A68FB6F0B43EF
:102120009360FB6D1A68914B9A4225D1904BD3F87E
:10213000883003F00303032B1AD801A252F823F0CE
:102140005121000861210008592100086921000877
:10215000012387F87B30D6E0022387F87B30D2E07A
:10216000042387F87B30CEE0082387F87B30CAE071
:10217000102387F87B30C6E0FB6D1A687D4B9A42CE
:1021800038D17B4BD3F8883003F00C030C2B2DD8BF
:1021900001A252F823F000BFCD210008ED21000874
:1021A000ED210008ED210008DD210008ED210008E7
:1021B000ED210008ED210008D5210008ED210008DF
:1021C000ED210008ED210008E5210008002387F833
:1021D0007B3098E0022387F87B3094E0042387F873
:1021E0007B3090E0082387F87B308CE0102387F861
:1021F0007B3088E0FB6D1A685F4B9A4225D15C4BBF
:10220000D3F8883003F03003302B16D0302B18D899
:10221000202B0AD0202B14D8002B02D0102B08D052
:102220000FE0002387F87B306DE0022387F87B30D6
:1022300069E0042387F87B3065E0082387F87B306A
:1022400061E0102387F87B305DE0FB6D1A684B4B33
:102250009A4225D1464BD3F8883003F0C003C02BF7
:1022600016D0C02B18D8802B0AD0802B14D8002B66
:1022700002D0402B08D00FE0002387F87B3042E0EB
:10228000022387F87B303EE0042387F87B303AE076
:10229000082387F87B3036E0102387F87B3032E064
:1022A000FB6D1A68304B9A422AD1314BD3F88830F3
:1022B00003F44063B3F5406F1AD0B3F5406F1BD8F9
:1022C000B3F5006F0CD0B3F5006F15D8002B03D019
:1022D000B3F5806F08D00FE0002387F87B3012E061
:1022E000022387F87B300EE0042387F87B300AE076
:1022F000082387F87B3006E0102387F87B3002E064
:10230000102387F87B30FB6D1A68174B9A4240F018
:102310001C8197F87B30082B34D801A252F823F0A7
:1023200045230008852300084D2300088523000865
:10233000532300088523000885230008852300080F
:102340005B230008FFF738FCF8661FE00C4BFB66C8
:102350001CE0FFF799FBF86618E04FF40043FB66BA
:1023600014E000BFF369FFEF008000400038014037
:10237000001002400044004000480040004C004073
:102380000024F400012387F8733000BFFB6E002B9C
:1023900000F0E181FB6D5A6813465B001A44FB6E46
:1023A000934205D3FB6D5B681A03FB6E934203D91E
:1023B000012387F87330CEE197F87B30082B00F2C9
:1023C000AF8001A252F823F0ED2300082125000878
:1023D0004D240008212500088D240008212500082F
:1023E0002125000821250008E9240008FFF7E4FB67
:1023F000B866BB6E0022984691464FF000024FF03F
:1024000000034FEA092343EA18634FEA0822F96DF3
:1024100049684908002039657865D7E9144521469F
:102420005118B964294643EB0101F964FB6D5B68FF
:1024300000223B647A64D7E91023D7E91201FDF743
:10244000A7FE02460B4613467B676DE0FB6D5B689B
:102450005B080022BB63FA63AE4BD7E90E0102466C
:10246000D3183B630B4643F100037B63FB6D5B6852
:102470000022BB62FA62D7E90A23D7E90C01FDF713
:1024800087FE02460B4613467B674DE0FFF7FCFADA
:10249000B866BB6E00221C4615464FF000024FF096
:1024A00000032B0243EA14632202F96D49684908CC
:1024B000002039627862D7E9084521465118B96190
:1024C000294643EB0101F961FB6D5B6800223B612A
:1024D0007A61D7E90423D7E90601FDF759FE0246E0
:1024E0000B4613467B671FE0FB6D5B685B080022B1
:1024F0009A4693461AF50003BB604BF10003FB605C
:10250000FB6D5B6800223B607A60D7E90023D7E966
:102510000201FDF73DFE02460B4613467B6703E0D2
:10252000012387F8733000BF7B6FB3F5407F08D37A
:102530007B6FB3F5801F04D2FB6D1B687A6FDA6086
:1025400009E1012387F8733005E1FB6DDB69B3F521
:10255000004F40F0898097F87B30082B5ED801A2AD
:1025600052F823F089250008A9250008C92500088C
:102570001D260008E52500081D2600081D26000868
:102580001D26000805260008FFF716FBB866BB6E7F
:102590005A00FB6D5B685B081A44FB6D5B68B2FB1D
:1025A000F3F39BB27B673DE0FFF71CFBB866BB6EA5
:1025B0005A00FB6D5B685B081A44FB6D5B68B2FBFD
:1025C000F3F39BB27B672DE0FB6D5B685B0803F167
:1025D000F47303F59043FA6D5268B3FBF2F39BB2C8
:1025E0007B671FE0FFF750FAB866BB6E5A00FB6DC1
:1025F0005B685B081A44FB6D5B68B2FBF3F39BB24C
:102600007B670FE0FB6D5B685B0803F58032FB6D59
:102610005B68B2FBF3F39BB27B6703E0012387F8AF
:10262000733000BF7B6F0F2B1AD97B6FB3F5803FE0
:1026300016D27B6F9BB223F00F03A7F866307B6F37
:102640005B089BB203F007039AB2B7F866301343F6
:10265000A7F86630FB6D1B68B7F86620DA607AE091
:10266000012387F8733076E097F87B30082B5FD82A
:1026700001A252F823F000BF9D260008BB260008E7
:10268000D926000831270008F52600083127000860
:10269000312700083127000819270008FFF78CFAB6
:1026A000B866FB6D5B685A08BB6E1A44FB6D5B68CD
:1026B000B2FBF3F39BB27B673EE0FFF793FAB86699
:1026C000FB6D5B685A08BB6E1A44FB6D5B68B2FB1E
:1026D000F3F39BB27B672FE0FB6D5B685B0803F550
:1026E000740303F51053FA6D5268B3FBF2F39BB217
:1026F0007B6721E0FFF7C8F9B866FB6D5B685A0895
:10270000BB6E1A44FB6D5B68B2FBF3F39BB27B6755
:1027100012E000BF000024F4FB6D5B685B0803F56A
:102720000042FB6D5B68B2FBF3F39BB27B6703E097
:10273000012387F8733000BF7B6F0F2B08D97B6FA5
:10274000B3F5803F04D2FB6D1B687A6FDA6002E05C
:10275000012387F87330FB6D00221A66FB6D00229F
:102760005A6697F8733018468037BD46BDE8B08F7B
:1027700080B483B000AF78607B685B6A03F00103CC
:10278000002B0AD07B681B685B6823F400317B68F0
:102790009A6A7B681B680A435A607B685B6A03F02D
:1027A0000203002B0AD07B681B685B6823F480312E
:1027B0007B68DA6A7B681B680A435A607B685B6ADD
:1027C00003F00403002B0AD07B681B685B6823F4CA
:1027D00080217B681A6B7B681B680A435A607B68A0
:1027E0005B6A03F00803002B0AD07B681B685B68F8
:1027F00023F400417B685A6B7B681B680A435A606C
:102800007B685B6A03F01003002B0AD07B681B68AF
:102810009B6823F480517B689A6B7B681B680A4332
:102820009A607B685B6A03F02003002B0AD07B6808
:102830001B689B6823F400517B68DA6B7B681B681C
:102840000A439A607B685B6A03F04003002B1AD04E
:102850007B681B685B6823F480117B681A6C7B685B
:102860001B680A435A607B681B6CB3F5801F0AD152
:102870007B681B685B6823F4C0017B685A6C7B68CB
:102880001B680A435A607B685B6A03F08003002B75
:102890000AD07B681B685B6823F400217B689A6C14
:1028A0007B681B680A435A6000BF0C37BD465DF861
:1028B000047B704780B586B002AF78607B680022E9
:1028C000DA6700F023F9F8607B681B681B6803F087
:1028D0000803082B0ED16FF07E430093FB680022A3
:1028E0004FF40011786800F02AF80346002B01D05D
:1028F000032320E07B681B681B6803F00403042BA0
:102900000ED16FF07E430093FB6800224FF48001EC
:10291000786800F014F80346002B01D003230AE086
:102920007B6820225A677B6820229A677B68002296
:1029300083F87020002318461037BD4680BD80B54F
:1029400084B000AFF860B9603B601346FB715DE096
:10295000BB69B3F1FF3F59D000F0D8F802463B689D
:10296000D31ABA699A4202D3BB69002B1BD1FB6808
:102970001B681A68FB681B6822F4D0721A60FB6837
:102980001B689A68FB681B6822F001029A60FB686A
:1029900020225A67FB6820229A67FB68002283F88E
:1029A0007020032342E0FB681B681B6803F00403EC
:1029B000002B2BD0FB681B68DB6903F40063B3F5C5
:1029C000006F23D1FB681B684FF400621A62FB683A
:1029D0001B681A68FB681B6822F4D0721A60FB68D7
:1029E0001B689A68FB681B6822F001029A60FB680A
:1029F00020225A67FB6820229A67FB682022DA6748
:102A0000FB68002283F8702003230FE0FB681B683B
:102A1000DA69BB681340BA689A420CBF01230023ED
:102A2000DBB21A46FB799A4292D00023184610373F
:102A3000BD4680BD80B582B000AF0023FB7103208E
:102A4000FDF7AEFD0F2000F015F80346002B02D075
:102A50000123FB7101E000F005F8FB791846083707
:102A6000BD4680BD80B400AF00BFBD465DF8047BAD
:102A70007047000080B584B000AF78600023FB731E
:102A8000164B1B68002B22D0154B1A68134B1B6882
:102A90004FF47A71B1FBF3F3B2FBF3F31846FDF791
:102AA000B4FD0346002B0FD17B680F2B09D8002201
:102AB00079684FF0FF30FDF77EFD0A4A7B681360AE
:102AC00007E00123FB7304E00123FB7301E0012312
:102AD000FB73FB7B18461037BD4680BD54040020B5
:102AE0006C0400205004002080B400AF054B1A682D
:102AF000054B1B681344034A136000BFBD465DF8D5
:102B0000047B7047BC0500205404002080B400AF53
:102B1000034B1B681846BD465DF8047B704700BF39
:102B2000BC05002080B584B000AF7860FFF7EEFFF1
:102B3000B8607B68FB60FB68B3F1FF3F04D0094BD2
:102B40001B68FA681344FB6000BFFFF7DFFF024613
:102B5000BB68D31AFA689A42F7D800BF00BF103793
:102B6000BD4680BD5404002080B588B000AF034648
:102B7000FB7107F10C0300221A605A609A60DA6058
:102B80001A61FB79002B0BD1104BDB6C0F4A43F021
:102B90000103D3640D4BDB6C03F00103BB60BB6826
:102BA0002023FB6001233B6100237B610223BB6187
:102BB000FB79074A52F8233007F10C0211461846F8
:102BC000FDF7A8FF00BF2037BD4680BD00100240C2
:102BD0005804002080B582B000AF0346FB71FB793A
:102BE000054A52F82330202101221846FEF7E6F963
:102BF00000BF0837BD4680BD5804002080B582B0B4
:102C000000AF0346FB71FB79054A52F823302022BE
:102C100011461846FEF7EAF900BF0837BD4680BDE9
:102C20005804002080B588B000AF03460A46FB7107
:102C30001346BB7107F10C0300221A605A609A60B8
:102C4000DA601A61FB79002B0BD1244BDB6C234A31
:102C500043F00403D364214BDB6C03F00403BB603B
:102C6000BB68BB79002B13D14FF40053FB600023EA
:102C70003B6100237B610223BB61FB79184A52F858
:102C8000233007F10C0211461846FDF743FF21E0FF
:102C9000BB79012B1ED14FF40053FB60114B3B61FC
:102CA00000237B610223BB61FB790D4A52F823307C
:102CB00007F10C0211461846FDF72CFF28235BB2E2
:102CC00000220F211846FDF776FC28235BB2184638
:102CD000FDF78DFC00BF2037BD4680BD00100240CF
:102CE0005C0400200000211080B500AF134B144A93
:102CF0001A60124B4FF4E1325A60104B00229A6076
:102D00000E4B0022DA600D4B00221A610B4B0022A1
:102D10009A610A4B0C225A61084B0022DA61074B78
:102D200000225A620548FFF721F80346002B01D024
:102D3000002300E00123184680BD00BFC00500202D
:102D40000038014080B500AF0548FEF7C1FF0346DB
:102D5000002B01D0002300E00123184680BD00BFF6
:102D6000C005002080B500AF0548FEF7FFFF034611
:102D7000002B01D0002300E00123184680BD00BFD6
:102D8000C005002080B582B000AF786039603B6834
:102D90009AB24FF4FA7379680648FFF71CF80346B5
:102DA000002B01D0002300E0012318460837BD4660
:102DB00080BD00BFC005002080B584B000AF786042
:102DC00039603B681B68FB81FA894FF4FA737968B4
:102DD0000648FFF793F80346002B01D0002300E0DC
:102DE000012318461037BD4680BD00BFC005002036
:102DF00080B485B000AF78600023FB737B68002B44
:102E000004D07B68013B032B06D802E00123FB734F
:102E100005E00023FB7302E00023FB7300BFFB7B94
:102E200018461437BD465DF8047B704780B500AF87
:102E30000020FFF799FE01210020FFF7F3FE012398
:102E4000184680BD80B500AF0020FFF7D7FE642094
:102E5000FFF768FEF8E780B500AF0020FFF7BAFE85
:102E600000BF80BD80B596B000AF07F144030022DB
:102E70001A605A609A60DA601A613B464422002167
:102E80001846FDF75FFA10233B600123BB61602306
:102E90003B620023FB610223BB620123FB6201232F
:102EA0003B63154B5B687B63134B9B683B64072359
:102EB000BB630423FB633B461846FEF7E3F8034677
:102EC000002B00D0FEE70F237B640323BB640023A9
:102ED000FB6400233B6500237B6507F14403042169
:102EE0001846FEF7EFFC0346002B00D0FEE700BFBC
:102EF0005837BD4680BD00BF9004002080B58AB021
:102F000000AF7860224BDB6C214A43F00103D364AD
:102F10001F4BDB6C03F001033B613B691C4BDB6C1B
:102F20001B4A43F00103D364194BDB6C03F001032C
:102F3000FB60FB68164B1B6E154A43F48043136617
:102F4000134B1B6E03F48043BB60BB684FF40073EC
:102F50007B610223BB610123FB6102233B620723E8
:102F60007B6207F1140319464FF09040FDF7D2FD44
:102F70004FF480637B6107237B6207F114031946DA
:102F80004FF09040FDF7C6FD00BF2837BD4680BD1D
:102F90000010024080B582B000AF78600D4B1B6C12
:102FA0000C4A43F4804313640A4B1B6C094A23F414
:102FB000804313644FF400714FF09040FDF724FFFD
:102FC0004FF480614FF09040FDF71EFF00BF0837BF
:102FD000BD4680BD0010024080B400AF00BFBD46BA
:102FE0005DF8047B704780B400AFFEE780B400AFAB
:102FF000FEE780B400AFFEE780B400AFFEE780B428
:1030000000AF00BFBD465DF8047B704780B400AFE1
:1030100000BFBD465DF8047B704780B400AF00BFC1
:10302000BD465DF8047B704780B500AFFFF75CFDDF
:1030300000BF80BD80B500AF4FF40050FDF7F0FF3A
:1030400000BF80BD80B483B000AF0346FB80FB8827
:10305000DB0003F1006303F5004318460C37BD465F
:103060005DF8047B7047000080B582B000AF7860E7
:1030700039603A687968034801F038FA00BF0837C8
:10308000BD4680BD6806002080B582B000AF786084
:10309000FDF734FB224B4FF400421A61214800F047
:1030A00079F80346204A1360204800F073F802467E
:1030B0001D4B1B68D31A01331D4A1360194800F0D9
:1030C000A9F803461B4A1360194B1B687A689A4299
:1030D00002D9174B1B687B607B68002B01D1012351
:1030E0007B60154B00221A60124B1B68124A53601A
:1030F0000D4B1B68104A93600F4A7B68D3600F49E1
:103100000D48FDF7E1FB0346002B02D0FFF79AFEC6
:10311000FCE7FDF715FB00BF0837BD4680BD00BFCB
:10312000002002400080000840060020FF07010840
:1031300044060020480600205406002050060020C7
:1031400080B582B000AF0346FB80FDF7D7FAFB885D
:10315000DB00FB80FB8803F1006303F500430B4AAF
:1031600013600A4B19680A4BD3E900230020FDF7CE
:1031700059FA0346002B02D0FFF764FEFCE7FDF787
:10318000DFFA00BF0837BD4680BD00BF4C060020F7
:103190006806002080B485B000AF78600023FB6033
:1031A000194B1B689BB24FF6FF72934207D0164B28
:1031B0001B689A02154B134003F1006300E0144BA7
:1031C0007A68934205D97B6803F17843DB0AFB6098
:1031D00013E00D4B1B689BB24FF6FF72934207D072
:1031E000094B1B689A02094B134003F1006300E08E
:1031F000074B7A68D31ADB0AFB60FB681846143762
:10320000BD465DF8047B7047E075FF1F00FCFF03BF
:103210000000080880B485B000AF78600023FB6030
:103220000123FB60FB6818461437BD465DF8047B3C
:103230007047000080B500AFFFF7FCFBFFF7F6FD1D
:10324000044B1B68002B01D0FFF70CFE012318462E
:1032500080BD00BF9004002080B485B000AF7860CE
:103260000023FB737B68002B02D10123FB7301E079
:103270000023FB73FB7B18461437BD465DF8047BC7
:103280007047000080B584B000AF78600023FB6019
:103290000B4A0C49786801F037F9F860FB687A68E6
:1032A0001344094A0749184601F02EF90246FB6803
:1032B0001344FB60FB6818461037BD4680BD00BF55
:1032C00060040020D84D00086404002080B588B058
:1032D00000AF4FF40053FB83114BDB6C104A43F0FB
:1032E0000403D3640E4BDB6C03F004037B607B6848
:1032F000FB8BBB600123FB6001233B6101237B61EE
:1033000007F1080319460748FDF704FCFB8B002270
:1033100019460448FDF752FE00BF2037BD4680BD68
:10332000001002400008004880B588B000AF4FF49C
:103330008043FB83114BDB6C104A43F00403D364DE
:103340000E4BDB6C03F004037B607B68FB8BBB6084
:103350000123FB6001233B6101237B6107F108032B
:1033600019460748FDF7D6FBFB8B00221946044897
:10337000FDF724FE00BF2037BD4680BD001002408F
:103380000008004880B500AF01224FF40051024808
:10339000FDF714FE00BF80BD0008004880B500AFF7
:1033A00000224FF400510248FDF708FE00BF80BD27
:1033B0000008004880B500AF01224FF48041024868
:1033C000FDF7FCFD00BF80BD0008004880B500AFE0
:1033D00000224FF480410248FDF7F0FD00BF80BDA0
:1033E0000008004880B400AF174BD3F88830164A65
:1033F00043F47003C2F88830144B1B68134A43F03F
:1034000001031360114B00229A60104B1B680F4A96
:1034100023F0A85323F4102313600C4B4FF4805275
:10342000DA600A4B1B68094A23F480231360074BB8
:1034300000229A61044B4FF000629A6000BFBD46C3
:103440005DF8047B704700BF00ED00E00010024013
:1034500080B500AFFFF7EEFE002000F031FE03461E
:10346000012B01D0FFF7EEFC012000F029FE0346FE
:10347000012B01D0FFF7E6FC002000F03FFB0346E4
:10348000012B01D0FFF7DEFC144B1A6814491346D8
:103490009B0013449B000B441B6898470346012B79
:1034A00001D0FFF7CFFC0D4B1A680D4913469B0066
:1034B00013449B000B4404331B6898470346012BBD
:1034C00001D0FFF7BFFC002000F030FE012000F02B
:1034D0002DFEFFF7C0FC00F089FBFCE77C09002013
:1034E0005056000880B483B000AF10237B6089E0A1
:1034F0007B6803F00F03002B32D17B68033B474A04
:1035000052F82330464A52F823207B68002B00DA19
:103510000F331B11013B434951F823305340424ABA
:1035200013607B68023B3D4A52F823303C4A52F814
:1035300023303D4A53607B68013B384A52F82330C0
:10354000374A52F82330384A93607B68043B334A49
:1035500052F82330324A52F82330334AD3601BE00A
:103560007B68043B2D4A52F823302F4A13607B6856
:10357000033B2A4A52F823302B4A53607B68023BB4
:10358000264A52F82330284A93607B68013B234A3D
:1035900052F82330244AD3607B68103B1F4A52F80C
:1035A0002320214B1B685A401C497B6841F823208B
:1035B0007B680F3B194A52F823101B4B5A687B68F3
:1035C00001334A40154941F823207B680E3B134ADA
:1035D00052F82310144B9A687B6802334A400F4913
:1035E00041F823207B680D3B0C4A52F823100E4B08
:1035F000DA687B6803334A40084941F823207B6836
:1036000004337B607B68AF2B7FF772AF00BF00BFD6
:103610000C37BD465DF8047B704700BF7006002084
:10362000284E0008285600083009002080B483B0D6
:1036300000AF00237B6011E00D4A7B6852F8232025
:103640000C4B19687B689B000B441B685A40084967
:103650007B6841F823207B6801337B607B680F2BFC
:10366000EADD00BF00BF0C37BD465DF8047B704744
:10367000300900207809002080B400AF424B1B685D
:10368000424A52F82330404A13603F4B1B693F4A7D
:1036900052F823303C4A13613B4B1B6A3B4A52F8B9
:1036A0002330394A1362384B1B6B384A52F82330A7
:1036B000354A1363344B5B68344A52F82330344A3A
:1036C0001360314B5B69314A52F823302E4A536004
:1036D0002D4B5B6A2D4A52F823302B4A53612A4BFB
:1036E0005B6B2A4A52F82330274A5362284B1B68E7
:1036F000254A5363244B9B68244A52F82330244ABA
:103700001360214B9B6A214A52F823301E4A936072
:103710001F4B1B681C4A93621B4B9B691B4A52F848
:1037200023301B4A1360184B9B6B184A52F8233006
:10373000154A9361164B1B68134A9363124BDB6B5C
:10374000124A52F82330124A13600F4BDB6A0F4AB9
:1037500052F823300C4AD3630B4BDB690B4A52F807
:103760002330094AD362084BDB68084A52F82330F9
:10377000054AD361064B1B68034AD36000BFBD46B0
:103780005DF8047B704700BF30090020284E000818
:103790007009002080B584B000AF8E4B1B684033A9
:1037A0008C4A1360FFF768FF8B4B1B683B608A4BAA
:1037B0005B687B60884B9B68BB60874BDB68FB600A
:1037C0003A687B685340854A52F823207B685A4008
:1037D000BB685A40FB6853407F4A13607A68BB68F5
:1037E00053407E4A52F82320BB685A40FB685A4037
:1037F0003B685340784A5360BA68FB685340774A45
:1038000052F82320FB685A403B685A407B6853407B
:10381000714A9360FA683B685340704A52F823201B
:103820003B685A407B685A40BB6853406A4AD36041
:10383000694B1B693B60684B5B697B60664B9B69AE
:10384000BB60654BDB69FB603A687B685340634A49
:1038500052F823207B685A40BB685A40FB685340AB
:103860005D4A13617A68BB6853405C4A52F8232072
:10387000BB685A40FB685A403B685340564A536104
:10388000BA68FB685340554A52F82320FB685A40F7
:103890003B685A407B6853404F4A9361FA683B68E3
:1038A00053404E4A52F823203B685A407B685A40A6
:1038B000BB685340484AD361474B1B6A3B60464B49
:1038C0005B6A7B60444B9B6ABB60434BDB6AFB607B
:1038D0003A687B685340414A52F823207B685A403B
:1038E000BB685A40FB6853403B4A13627A68BB6826
:1038F00053403A4A52F82320BB685A40FB685A406A
:103900003B685340344A5362BA68FB685340334AB9
:1039100052F82320FB685A403B685A407B6853406A
:103920002D4A9362FA683B6853402C4A52F8232090
:103930003B685A407B685A40BB685340264AD36272
:10394000254B1B6B3B60244B5B6B7B60224B9B6B63
:10395000BB60214BDB6BFB603A687B6853401F4ABE
:1039600052F823207B685A40BB685A40FB6853409A
:10397000194A13637A68BB685340184A52F82320E7
:10398000BB685A40FB685A403B685340124A536335
:10399000BA68FB685340114A52F82320FB685A402A
:1039A0003B685A407B6853400B4A9363FA683B6814
:1039B00053400A4A52F823203B685A407B685A40D9
:1039C000BB685340044AD363FFF730FE00BF103793
:1039D000BD4680BD7809002030090020285200082B
:1039E00080B582B000AF00237B60144B144A1A608C
:1039F000FFF71CFE00237B6010E07B68082B02D1E0
:103A0000012000F077FBFFF7C5FE7B68082B02D191
:103A1000012000F08BFB7B6801337B607B68082B07
:103A2000EBDDFFF729FE054B1B684033034A1360AB
:103A3000FFF7FCFD00BF0837BD4680BD78090020B8
:103A40007006002080B584B000AF78600023FB6072
:103A50000BE0FB687A6813441B781946144AFB682C
:103A600042F82310FB680133FB60FB680F2BF0DD8D
:103A7000FFF738FD0F4B0E4A1A600023BB600EE0C3
:103A8000FB687A6813441B7819460B4ABB6842F8F6
:103A90002310BB680133BB60FB680133FB60BB686C
:103AA0000F2BEDDD00BF00BF1037BD4680BD00BF4E
:103AB00070060020780900203009002080B485B00D
:103AC00000AF78600023FB730BE0FB7B0A4A52F8DF
:103AD0002310FB7B7A681344CAB21A70FB7B013354
:103AE000FB73FB7B0F2BF0D900BF00BF1437BD4623
:103AF0005DF8047B704700BF3009002080B582B0BC
:103B000000AF78607B68042B13D87868FFF770F9F2
:103B10000346012B0BD17868FFF79EFB0346012B70
:103B200005D1064A7B68136000BF012302E0002331
:103B300000E0002318460837BD4680BD7C09002000
:103B400080B582B000AF78600B467B80174B1B6856
:103B5000002B03D0013B032B1FD81CE07B881B0AE2
:103B60009BB2DAB27B681A707B6801337A88D2B272
:103B70001A700E4B1A680E4913469B0013449B00A3
:103B80000B4408331B680221786898470346012BD1
:103B900005D0002305E0002303E0002301E000BF7F
:103BA000012318460837BD4680BD00BF7C090020B0
:103BB0005056000880B582B000AF78603960094B7C
:103BC0001A68094913469B0013449B000B440C33AD
:103BD0001B68396878689847034618460837BD4619
:103BE00080BD00BF7C0900205056000890B583B00E
:103BF00000AF124B124A1A6012491148FFF7DAFF60
:103C00000346FB71FB79012B13D10C4B1B689B887E
:103C1000BB800A4B1C68BB88184600F0A3FA034619
:103C2000A380074800F010F80346012B01D0FFF7EE
:103C300009F900BF0C37BD4690BD00BF800D0020C4
:103C4000800900207004002080B584B000AF786047
:103C50000023FB73204B1B681B78FE2B08D04FF40E
:103C6000DC417868FFF76CFF0123FB73FB7B2EE0E0
:103C7000194B1B685B788A2B12D08A2B16DC802BA1
:103C800002D0882B06D011E0786800F027F80346B0
:103C9000FB731BE0786800F077F80346FB7315E0D0
:103CA000786800F0A3F90346FB730FE07868FCF72F
:103CB0009BFB0346FB73FB7B022B06D146F686116A
:103CC0007868FFF73DFF0123FB7300BFFB7B1846BD
:103CD0001037BD4680BD00BF800D002080B584B088
:103CE00000AF7860254B1B689B78FB60FB68002B5E
:103CF00003D0FB68022B19D031E0786800F048FA55
:103D0000B8601F4B1A681F4913469B0013449B0061
:103D10000B4408331B68BA68114678689847034615
:103D2000012B01D0002325E0012323E07868FFF771
:103D3000A9FAB860124B1A68124913469B00134443
:103D40009B000B4408331B68BA6811467868984793
:103D50000346012B01D000230CE001230AE04FF4BD
:103D6000D4417868FFF7ECFE0346012B01D0002315
:103D700000E0012318461037BD4680BD800D0020AD
:103D80007C0900205056000880B588B000AF7860EC
:103D90004FF4DE43FB830023FB82904B1B689B7830
:103DA0007B758E4B1B68DB787B778C4B1B689B8805
:103DB000FB607B7D023B082B00F2EB8001A252F8F6
:103DC00023F000BFE93D0008933F00081B3E0008B8
:103DD000933F0008233F0008933F0008A93E0008D6
:103DE000933F00087D3E0008002000F083F9002387
:103DF000BB610AE07A68BB6913447949BA690A442D
:103E000012781A70BB690133BB61FB68BA699A42C8
:103E1000F0D3002000F08AF9C8E007F10C0319463E
:103E20007868FFF7C7FE0346012B1BD1002000F086
:103E300061F90023BB610BE07A68BB691344197810
:103E4000674ABB6913440A461A70BB690133BB61F8
:103E5000FB68BA699A42EFD3002000F067F94FF48B
:103E60001043FB83FB8B19467868FFF769FE034616
:103E7000012B01D00023ADE00123ABE0002000F0D6
:103E800039F97B7F1846FFF7FFF8002000F04EF964
:103E90004FF410417868FFF753FE0346012B01D021
:103EA000002397E0012395E007F10C031946786899
:103EB000FFF780FE0346012B27D17B681B789BB25E
:103EC0001B029AB27B6801331B789BB21344FB82BE
:103ED0007B689A1CFB68023B19461046FFF7C4F842
:103EE000002000F007F905E0FB8A5A1CFA82184608
:103EF000FFF726F97B7F5A1E7A77002BF4D100203A
:103F000000F014F94FF41043FB83FB8B19467868DB
:103F1000FFF716FE0346012B01D000235AE00123D0
:103F200058E007F10C0319467868FFF743FE034693
:103F3000012B3AD17B681B789BB21B029AB27B683B
:103F400001331B789BB21344FB827B6802331B78DE
:103F5000FB60FB8A1846FFF775F803463B610020BB
:103F600000F0C8F80023BB610BE03A69BB691A4452
:103F70007968BB690B441278D2B21A70BB690133FD
:103F8000BB61FB68BA699A42EFD3002000F0CEF81B
:103F90000BE04FF4D4417868FFF7D2FD0346012BC4
:103FA00001D0002316E0012314E000BF0D4B1A6876
:103FB0000D4913469B0013449B000B4408331B68B8
:103FC000FA681146786898470346012B01D0002310
:103FD00000E0012318462037BD4680BD800D00203B
:103FE0009C0400207C0900205056000880B584B055
:103FF00000AF78602F4B1B689B78FB732D4B1B68C1
:10400000DB78BB732B4B1B689B88BB60FB7B002B57
:104010003CD1BB7B022B19D107F108031946786804
:10402000FFF7C8FD0346012B1CD17868FFF70AFD96
:10403000002000F05FF8FFF7D3FC002000F076F8D6
:104040007868FFF73BFD1023BB600BE04FF4D441D1
:104050007868FFF775FD0346012B01D0002324E0AB
:10406000012322E000BF00BF134B1A681349134617
:104070009B0013449B000B4408331B68BA6811462D
:10408000786898470346012B0ED00BE04FF4D441DB
:104090007868FFF755FD0346012B01D0002304E0AB
:1040A000012302E0002300E0012318461037BD463B
:1040B00080BD00BF800D00207C0900205056000804
:1040C00080B582B000AF0346FB80FB88012B01D98D
:1040D000002309E0FA88064913465B0013449B005D
:1040E0000B441B689847012318460837BD4680BD1E
:1040F0006456000880B582B000AF0346FB80FB88A1
:10410000012B01D900230AE0FA88074913465B0016
:1041100013449B000B4404331B6898470123184643
:104120000837BD4680BD00BF6456000880B582B028
:1041300000AF0346FB80FB88012B01D900230AE076
:10414000FA88074913465B0013449B000B4408336D
:104150001B689847012318460837BD4680BD00BF3D
:104160006456000880B483B000AF0346FB80FB8830
:104170001B021AB2FB881B0A9BB21BB213431BB271
:104180009BB218460C37BD465DF8047B70470000B3
:1041900080B584B000AF78600023FB600B4A0C4907
:1041A000786800F0B1F9F860FB687A681344094A4E
:1041B0000749184600F0A8F90246FB681344FB6063
:1041C000FB6818461037BD4680BD00BF7404002050
:1041D000DC4D000884040020DFF830D0002103E02B
:1041E0000B4B5B58435004310A480B4B42189A4220
:1041F000F6D30A4A02E0002342F8043BFFF7F2F844
:10420000FCF77CF8FFF724F9FEE7000000800120AE
:10421000C85600080000002090040020A0050020DF
:10422000FEE700002DE9F047089E0D4604460F46C4
:10423000002B4AD18A42944665D9B2FA82F343B13F
:1042400002FA03FCC3F120029F4020FA02F2174356
:104250009C404FEA1C4E1FFA8CF5B7FBFEF1220C76
:104260000EFB117742EA074201FB05F090420AD9A2
:104270001CEB020201F1FF3780F01C81904240F2FA
:10428000198102396244121AA4B2B2FBFEF00EFB8D
:10429000102244EA024400FB05F5A5420AD91CEBB2
:1042A000040400F1FF3280F00781A54240F204814E
:1042B0006444023840EA0140641B00211EB1DC4026
:1042C0000023C6E90043BDE8F0878B4208D9002EE1
:1042D00000F0ED800021C6E900050846BDE8F08742
:1042E000B3FA83F1002949D1AB4202D3824200F2F2
:1042F000F880841A65EB030201201746002EE2D0F5
:10430000C6E90047DFE702B9FFDEB2FA82F3002B0D
:1043100040F090808A1A4FEA1C471FFA8CFE012158
:10432000B2FBF7F507FB1520220C42EA00420EFB18
:1043300005F0904208D91CEB020205F1FF3802D2C9
:10434000904200F2CB804546121AA4B2B2FBF7F0BD
:1043500007FB102244EA02440EFB00FEA64508D9E2
:104360001CEB040400F1FF3202D2A64500F2BB8030
:104370001046A4EB0E0440EA05409FE7C1F1200778
:104380008B4022FA07FC4CEA030C05FA01F420FAF0
:1043900007F3FD404FEA1C492343B5FBF9F81FFA28
:1043A0008CFE09FB18551C0C44EA054408FB0EF56D
:1043B000A54202FA01F200FA01F00BD91CEB040449
:1043C00008F1FF3A80F08880A54240F28580A8F18C
:1043D00002086444641B9DB2B4FBF9F309FB134467
:1043E00045EA044403FB0EFEA64508D91CEB040471
:1043F00003F1FF356CD2A6456AD9023B644443EA17
:104400000843A3FB0295A4EB0E04AC42C846AE469B
:1044100056D353D056B1B0EB080264EB0E0404FA45
:1044200007F7CA40CC401743C6E90074184600217C
:10443000BDE8F087C3F1200102FA03FC20FA01F283
:1044400025FA01F19D402A434FEA1C471FFA8CFED2
:10445000B1FBF7F007FB1015110C41EA054100FB19
:104460000EF58D4204FA03F408D91CEB010100F1AA
:10447000FF382FD28D422DD902386144491B92B2A8
:10448000B1FBF7F507FB151142EA014205FB0EF1FE
:10449000914208D91CEB020205F1FF3816D2914275
:1044A00014D9023D6244521A45EA004138E73146C8
:1044B000304608E73946E6E61046FBE64845A9D20D
:1044C000B9EB020865EB0C0E013BA3E74546EAE7B2
:1044D0002B4694E74046D1E7D0467BE7023D624455
:1044E00032E708460AE76444023842E70A44914248
:1044F00000F1FF3300D1704710B511F8014B03F8FC
:10450000014F9142F9D110BD0EB400B59CB01DAB66
:10451000029006906FF00041094807910491094903
:1045200053F8042B05910068019302A900F066F886
:10453000029B00221A701CB05DF804EB03B07047B8
:10454000000000200802FFFF2DE9F0478E681F469B
:10455000BE420B6882460C4690462CD88A8912F4DB
:10456000906F26D06569096905EB4505A3EB010944
:1045700005EBD5757B1C4B446D109D4238BF1D4625
:10458000530527D5294600F04DFB064660B3216947
:104590004A46FFF7ABFFA38923F4906343F08003FF
:1045A000A381266165614E44A5EB09052660A560DF
:1045B0003E46BE4200D93E4620683246414600F0A3
:1045C000ABFAA3689B1BA3602368334423600020DD
:1045D000BDE8F0872A4600F099FB06460028E0D1A6
:1045E0002169504600F0B2FA0C23CAF80030A389C2
:1045F00043F04003A3814FF0FF30E9E72DE9F04F8E
:1046000098468B891B069DB007460D4614460ED56D
:104610000B6963B9402100F005FB2860286120B9CF
:104620000C233B604FF0FF30D0E040236B61002350
:10463000099320238DF82930CDF80C803023DFF842
:10464000A4818DF82A304FF0010923469A4613F8C9
:10465000012B0AB1252AF9D1BAEB040B0BD05B462A
:10466000224629463846FFF76FFF013000F0A98047
:10467000099A5A4409929AF80030002B00F0A18060
:1046800000234FF0FF32CDE905230AF1010A04931C
:1046900007938DF853301A935446052214F8011BE2
:1046A0005048FBF795FD049AD8B9D00644BF2023A3
:1046B0008DF85330110744BF2B238DF853309AF8EF
:1046C00000302A2B15D0079A544600204FF00A0CD0
:1046D000214611F8013B303B092B4DD9B0B107926F
:1046E00014E0A0EB080309FA03F313430493A24672
:1046F000D2E7039B191D1B680391002BBBBF5B42D4
:1047000042F0020207930793B8BF049223782E2B3E
:104710000CD163782A2B34D1039B1A1D1B6803929A
:10472000002BB8BF4FF0FF3302340593DFF8C4A06D
:10473000217803225046FBF74BFD38B1049BA0EBD8
:104740000A004022824013430134049314F8011BF1
:1047500025488DF828100622FBF73AFD002838D0AE
:10476000224B1BBB039B073323F007030833039340
:10477000099B3344099368E70CFB02320C46012085
:10478000A6E700230134059319464FF00A0C204692
:1047900010F8012B303A092A03D9002BC6D0059115
:1047A000C4E70CFB012104460123F0E703AB0093AF
:1047B0002A460F4B04A93846AFF30080421C064638
:1047C000D6D1AB895B063FF52DAF09981DB0BDE88A
:1047D000F08F03AB00932A46054B04A9384600F03E
:1047E00079F8EBE77C5600088656000800000000C8
:1047F00049450008825600082DE9F04716469946BB
:104800008A680B69DDF820809342B8BF1346336095
:1048100091F8432007460C460AB101333360236800
:10482000990642BF336802333360256815F00605E8
:1048300006D104F1190AE36832689B1AAB4226DC00
:1048400094F84320131E226818BF012392062BD42C
:1048500004F1430249463846C04701301ED0236860
:10486000226903F00603042B02BFE5683368ED1AE2
:10487000A3680CBF25EAE57500259342C4BF9B1AC7
:10488000ED1800261A34B5421AD1002008E00123A1
:10489000524649463846C047013003D14FF0FF30F9
:1048A000BDE8F0870135C6E7E1185A1C302081F8D1
:1048B0004300224494F8451082F843100233C7E7BE
:1048C0000123224649463846C0470130E6D001362A
:1048D000D9E700002DE9FF470F7E0C9D782F914608
:1048E00080460C469A4601F1430207D8622F0AD847
:1048F000002F00F0D480582F00F0C08004F1420552
:1049000084F842703AE0A7F16303152BF6D801A1B1
:1049100051F823F06D49000881490008FD4800085E
:10492000FD480008FD480008FD48000881490008CE
:10493000FD480008FD480008FD480008FD48000843
:10494000854A0008AD4900083F4A0008FD480008B4
:10495000FD480008A74A0008FD480008AD490008C6
:10496000FD480008FD480008474A00082B681A1D4A
:104970001B682A6004F1420584F8423001239FE05D
:1049800020682B68070603F10401296001D51E6821
:1049900003E04606FBD5B3F90060002E03DA2D23B1
:1049A000764284F843305A480A2312E02B68206884
:1049B000191D2960050601D51E6802E04106FBD5D8
:1049C0001E8853486F2F0CBF08230A23002184F848
:1049D00043106568A560002DA2BF216821F0040185
:1049E00021600EB9002D4BD01546B6FBF3F103FB49
:1049F0001167C75D05F8017D3746BB420E46F4D905
:104A0000082B0BD12368DE0708D52369616899421A
:104A1000DEBF302305F8013C05F1FF35521B226152
:104A2000CDF800A04B4603AA21464046FFF7E4FE1E
:104A300001304AD14FF0FF3004B0BDE8F087236861
:104A400043F0200323603348782784F845702368B7
:104A500029681F0651F8046B02D45F0648BFB6B23E
:104A6000DF0748BF43F02003296048BF23601EB919
:104A7000236823F0200323601023A7E72448E4E7FA
:104A80001546BDE72B6826686169181D2860350644
:104A90001B6801D5196002E07006FBD51980002360
:104AA00023611546BCE72B681A1D2A601D686268E1
:104AB00000212846FBF78CFB08B1401B606063684F
:104AC0002361002384F84330AAE723692A46494634
:104AD0004046D0470130ADD023689B0713D4E0682F
:104AE000039B9842B8BF1846A6E7012332464946C1
:104AF0004046D04701309DD00135E36803995B1AE9
:104B0000AB42F2DCEBE7002504F11906F5E700BF44
:104B10008D5600089E560008884210B501EB02042D
:104B200002D98442234607D8431EA14208D011F877
:104B3000012B03F8012FF8E7024401468A4200D115
:104B400010BD13F8014D02F8014DF7E737B5002904
:104B500044D051F8043C0190002BA1F10404B8BFEB
:104B6000E41800F013F91E4A0198136833B9636022
:104B7000146003B0BDE8304000F009B9A34208D981
:104B8000256861198B4201BF19685B68491921606A
:104B9000EDE71A465B680BB1A342FAD911685518C4
:104BA000A5420BD1246821445418A3421160E0D1DE
:104BB0001C685B6853600C441460DAE702D90C236C
:104BC0000360D6E7256861198B4204BF19685B68EA
:104BD000636004BF491921605460CAE703B030BD67
:104BE000840D002070B50E4E0C463168054611B993
:104BF00000F0BCF830602146284600F0B7F8431CAE
:104C00000AD0C41C24F00304A04207D0211A28466D
:104C100000F0ACF8013001D14FF0FF34204670BDF8
:104C2000880D00202DE9F041CD1C25F00305083545
:104C30000C2D38BF0C25002D074601DBA94205D9F4
:104C40000C233B6000263046BDE8F0812E4E00F07C
:104C50009DF833681C4634BB29463846FFF7C2FF2F
:104C6000431C04464DD134682646002E40D12368AB
:104C70003146384604EB030800F078F880453AD115
:104C800023680335ED1A25F0030508350C2D38BFD0
:104C90000C2529463846FFF7A5FF01302BD02368A5
:104CA0002B4423600EE02268521B1ED40B2A16D917
:104CB0006119A342256018BF5960636808BF31605D
:104CC00062514B60384604F10B0600F060F826F0A4
:104CD0000706231DF21AB6D09B1BA350B3E76268E8
:104CE000A3420CBF32605A60ECE723466468B2E727
:104CF00034467668B9E70C233B60384600F047F845
:104D0000A1E72560DEE700BF840D00202DE9F0411A
:104D1000804614460E4621B9BDE8F0411146FFF722
:104D200081BF2AB9FFF712FF25462846BDE8F0816A
:104D300000F02EF88442074602D8B4EB500F12D888
:104D400021464046FFF76EFF05460028EDD0BC42E5
:104D50002246314628BF3A46FFF7C8FB3146404657
:104D6000FFF7F4FEE1E73546DFE7000038B5064D12
:104D70000023044608462B6000F012F8431C02D1C1
:104D80002B6803B1236038BD8C0D0020704770473D
:104D900051F8043C181F002BBCBF0B58C0187047BB
:104DA000044A05491368002B08BF0B4618441060DD
:104DB00018467047900D0020980D0020F8B500BFF0
:104DC000F8BC08BC9E467047F8B500BFF8BC08BCEC
:084DD0009E4670470000000040
:104DD80025730A0025730A00000000000000000087
:104DE8000102030406070809000000000102030489
:104DF800A0860100400D0300801A060000350C0053
:104E080040420F0080841E0000093D0000127A0015
:104E18000024F40000366E010048E801006CDC0252
:104E2800630000007C000000770000007B000000A9
:104E3800F20000006B0000006F000000C5000000D9
:104E48003000000001000000670000002B00000097
:104E5800FE000000D7000000AB0000007600000054
:104E6800CA00000082000000C90000007D000000A8
:104E7800FA0000005900000047000000F0000000A0
:104E8800AD000000D4000000A2000000AF00000048
:104E98009C000000A400000072000000C000000098
:104EA800B7000000FD00000093000000260000008D
:104EB800360000003F000000F7000000CC000000B2
:104EC80034000000A5000000E5000000F10000002B
:104ED80071000000D800000031000000150000003B
:104EE80004000000C700000023000000C300000009
:104EF8001800000096000000050000009A0000005D
:104F0800070000001200000080000000E20000001E
:104F1800EB00000027000000B20000007500000050
:104F280009000000830000002C0000001A000000A7
:104F38001B0000006E0000005A000000A0000000E6
:104F4800520000003B000000D6000000B300000043
:104F580029000000E30000002F000000840000008A
:104F680053000000D100000000000000ED00000028
:104F780020000000FC000000B10000005B00000001
:104F88006A000000CB000000BE00000039000000ED
:104F98004A0000004C00000058000000CF0000004C
:104FA800D0000000EF000000AA000000FB00000095
:104FB800430000004D0000003300000085000000A1
:104FC80045000000F9000000020000007F0000001A
:104FD800500000003C0000009F000000A8000000F6
:104FE80051000000A3000000400000008F000000F6
:104FF800920000009D00000038000000F50000004D
:10500800BC000000B6000000DA000000210000002B
:1050180010000000FF000000F3000000D2000000B4
:10502800CD0000000C00000013000000EC000000A0
:105038005F00000097000000440000001700000017
:10504800C4000000A70000007E0000003D00000032
:10505800640000005D0000001900000073000000FB
:1050680060000000810000004F000000DC0000002C
:10507800220000002A0000009000000088000000C4
:1050880046000000EE000000B80000001400000018
:10509800DE0000005E0000000B000000DB000000E6
:1050A800E0000000320000003A0000000A000000A2
:1050B8004900000006000000240000005C00000019
:1050C800C2000000D3000000AC0000006200000035
:1050D8009100000095000000E40000007900000045
:1050E800E7000000C8000000370000006D00000065
:1050F8008D000000D50000004E000000A90000004F
:105108006C00000056000000F4000000EA000000F7
:10511800650000007A000000AE00000008000000F2
:10512800BA00000078000000250000002E000000F2
:105138001C000000A6000000B4000000C60000002B
:10514800E8000000DD000000740000001F000000FF
:105158004B000000BD0000008B0000008A0000002A
:10516800700000003E000000B5000000660000006E
:105178004800000003000000F60000000E000000D8
:10518800610000003500000057000000B900000071
:1051980086000000C10000001D0000009E00000005
:1051A800E1000000F8000000980000001100000075
:1051B80069000000D90000008E0000009400000083
:1051C8009B0000001E00000087000000E9000000AE
:1051D800CE0000005500000028000000DF0000009D
:1051E8008C000000A1000000890000000D000000F4
:1051F800BF000000E6000000420000006800000058
:1052080041000000990000002D0000000F00000080
:10521800B000000054000000BB00000016000000B1
:10522800000000000200000004000000060000006A
:10523800080000000A0000000C0000000E0000003A
:10524800100000001200000014000000160000000A
:10525800180000001A0000001C0000001E000000DA
:1052680020000000220000002400000026000000AA
:10527800280000002A0000002C0000002E0000007A
:10528800300000003200000034000000360000004A
:10529800380000003A0000003C0000003E0000001A
:1052A80040000000420000004400000046000000EA
:1052B800480000004A0000004C0000004E000000BA
:1052C800500000005200000054000000560000008A
:1052D800580000005A0000005C0000005E0000005A
:1052E800600000006200000064000000660000002A
:1052F800680000006A0000006C0000006E000000FA
:1053080070000000720000007400000076000000C9
:10531800780000007A0000007C0000007E00000099
:105328008000000082000000840000008600000069
:10533800880000008A0000008C0000008E00000039
:105348009000000092000000940000009600000009
:10535800980000009A0000009C0000009E000000D9
:10536800A0000000A2000000A4000000A6000000A9
:10537800A8000000AA000000AC000000AE00000079
:10538800B0000000B2000000B4000000B600000049
:10539800B8000000BA000000BC000000BE00000019
:1053A800C0000000C2000000C4000000C6000000E9
:1053B800C8000000CA000000CC000000CE000000B9
:1053C800D0000000D2000000D4000000D600000089
:1053D800D8000000DA000000DC000000DE00000059
:1053E800E0000000E2000000E4000000E600000029
:1053F800E8000000EA000000EC000000EE000000F9
:10540800F0000000F2000000F4000000F6000000C8
:10541800F8000000FA000000FC000000FE00000098
:105428001B000000190000001F0000001D00000004
:105438001300000011000000170000001500000014
:105448000B000000090000000F0000000D00000024
:105458000300000001000000070000000500000034
:105468003B000000390000003F0000003D00000044
:105478003300000031000000370000003500000054
:105488002B000000290000002F0000002D00000064
:105498002300000021000000270000002500000074
:1054A8005B000000590000005F0000005D00000084
:1054B8005300000051000000570000005500000094
:1054C8004B000000490000004F0000004D000000A4
:1054D80043000000410000004700000045000000B4
:1054E8007B000000790000007F0000007D000000C4
:1054F80073000000710000007700000075000000D4
:105508006B000000690000006F0000006D000000E3
:1055180063000000610000006700000065000000F3
:105528009B000000990000009F0000009D00000003
:105538009300000091000000970000009500000013
:105548008B000000890000008F0000008D00000023
:105558008300000081000000870000008500000033
:10556800BB000000B9000000BF000000BD00000043
:10557800B3000000B1000000B7000000B500000053
:10558800AB000000A9000000AF000000AD00000063
:10559800A3000000A1000000A7000000A500000073
:1055A800DB000000D9000000DF000000DD00000083
:1055B800D3000000D1000000D7000000D500000093
:1055C800CB000000C9000000CF000000CD000000A3
:1055D800C3000000C1000000C7000000C5000000B3
:1055E800FB000000F9000000FF000000FD000000C3
:1055F800F3000000F1000000F7000000F5000000D3
:10560800EB000000E9000000EF000000ED000000E2
:10561800E3000000E1000000E7000000E5000000F2
:105628000100000002000000040000000800000063
:105638001000000020000000400000008000000072
:105648001B00000036000000E92C0008452D00086A
:10565800852D0008B92D0008652D0008CD320008F9
:10566800853300089D33000829330008B533000846
:10567800CD330008232D302B2000686C4C00656664
:10568800674546470030313233343536373839418B
:1056980042434445460030313233343536373839A1
:0856A8006162636465660000A5
:0856B00074EBFF7F0100000014
:0856B800D90200080000000007
:0856C000B10200080000000027
:1056C800080000200000000000000000F402002094
:1056D8005C030020C403002000000000000000005C
:1056E80000000000000000000000000000000000B2
:1056F80000000000000000000000000000000000A2
:105708000000000000000000000000000000000091
:105718000000000000000000000000000000000081
:105728000000000000000000000000000000000071
:105738000000000000000000000000000000000061
:105748000000000000000000000000000000000051
:105758000000000000000000000000000000000041
:105768000000000000000000000000000000000031
:1057780001000000000000000E33CDAB34126DE6CE
:10578800ECDE05000B000000000000000000000037
:105798000000000000000000000000000000000001
:1057A80000000000000000000000000000000000F1
:1057B80000000000000000000000000000000000E1
:1057C80000000000000000000000000000000000D1
:105B0800010000000000000000000000000000008C
:105B180010000000010000000000004800080048D4
:105B280031000000302E302E3000000000093D000A
:105B380006000000554C2D494D5320434556414C15
:105B480000000000302E302E300000000000000061
:0C5B580001000000280000000200000016
:105B64000000000000000000000000000000000031
:105B74000000000000000000000000000000000021
:105B84000000000000000000000000000000000011
:105B94000000000000000000000000000000000001
:105BA40000000000000000000000000000000000F1
:105BB40000000000000000000000000000000000E1
:105BC40000000000000000000000000000000000D1
:105BD40000000000000000000000000000000000C1
:105BE40000000000000000000000000000000000B1
:105BF40000000000000000000000000000000000A1
:105C04000000000000000000000000000000000090
:105C14000000000000000000000000000000000080
:105C24000000000000000000000000000000000070
:105C34000000000000000000000000000000000060
:105C44000000000000000000000000000000000050
:105C54000000000000000000000000000000000040
:04000005080041D9D5
:00000001FF
