:020000040800F2
:100000008030002065490008E307010839490008ED
:100010003949000839490008394900080000000042
:10002000000000000000000000000000AD450008D6
:100030003949000800000000594500089D58000893
:100040005D4600085D4600085D4600085D46000804
:100050005D4600085D4600085D4600085D460008F4
:100060005D4600085D4600085D4600085D460008E4
:100070005D4600085D4600085D4600085D460008D4
:100080005D4600085D4600085D4600085D460008C4
:100090005D4600085D4600085D4600085D460008B4
:1000A0005D4600085D4600085D4600085D460008A4
:1000B0005D4600085D4600085D4600085D46000894
:1000C0005D4600085D4600085D4600085D46000884
:1000D0005D4600085D4600085D4600085D46000874
:1000E0005D4600085D4600085D4600085D46000864
:1000F0005D4600085D4600085D4600085D46000854
:100100005D4600085D4600085D4600085D46000843
:100110005D4600085D4600085D4600085D46000833
:100120005D4600085D4600085D4600085D46000823
:100130005D4600085D4600085D4600085D46000813
:100140005D4600085D4600085D4600085D46000803
:100150005D4600085D4600085D4600085D460008F3
:100160005D4600085D4600085D4600085D460008E3
:100170005D4600085D4600085D4600085D460008D3
:080180005D4600085D46000821
:10018800FFFFFFFFFFFFFFFFFFFFFFFFFFFFFFFF77
:10019800FFFFFFFFFFFFFFFFFFFFFFFFFFFFFFFF67
:1001A800FFFFFFFFFFFFFFFFFFFFFFFFFFFFFFFF57
:0801B800FFFFFFFFFFFFFFFF47
:1001C00090F800F06DE9024520F007016FF0000C97
:1001D00010F0070491F820F040F049804FF000043F
:1001E0006FF00700D1E9002391F840F000F108001A
:1001F00082FA4CF2A4FA8CF283FA4CF3A2FA8CF352
:100200004BBBD1E9022382FA4CF200F10800A4FAB8
:100210008CF283FA4CF3A2FA8CF3E3B9D1E904230C
:1002200082FA4CF200F10800A4FA8CF283FA4CF343
:10023000A2FA8CF37BB9D1E9062301F1200182FAFD
:100240004CF200F10800A4FA8CF283FA4CF3A2FA03
:100250008CF3002BC6D0002A04BF04301A4612BA11
:10026000B2FA82F2FDE8024500EBD2007047D1E914
:10027000002304F00305C4F100004FEAC50514F0A3
:10028000040F91F840F00CFA05F562EA05021CBF74
:1002900063EA050362464FF00004A9E7000000008E
:1002A000A2EB0300704700BF02780B78012A28BF39
:1002B0009A42F5D16DE9044540EA0104CDE90267AF
:1002C0006FF0000C4FEA447212B380EA010414F09C
:1002D000070F6AD100F0070420F0070004F00305BF
:1002E00021F007014FEAC505F0E8042314F0040FDC
:1002F000F1E804670CFA05F462EA040266EA04060F
:100300000AD063EA0403624667EA0407664603E02C
:10031000F0E80423F1E8046782FA4CF582EA060467
:10032000A4FA8CF46CBB83FA4CF583EA0705A5FAB2
:100330008CF595B950E9022351E9026782FA4CF530
:1003400082EA0604A4FA8CF483FA4CF583EA0705E2
:10035000A5FA8CF52543DBD09CB92DBAB5FA85F406
:1003600024F0070427FA04F1DDE9026723FA04F315
:1003700003F0FF0001F0FF01FDE80445A0EB0100E0
:10038000704724BAB4FA84F424F0070426FA04F17E
:10039000DDE9026722FA04F202F0FF0001F0FF013A
:1003A000FDE80445A0EB0100704714F0030F3CD1B9
:1003B00010F0030428D150F8082B51F8083B82FABA
:1003C0004CF582EA0305A5FA8CF55DB950F8042CCA
:1003D00051F8043C82FA4CF582EA0305A5FA8CF543
:1003E000002DE8D02DBAB5FA85F424F0070423FADD
:1003F00004F122FA04F202F0FF0001F0FF01FDE82F
:100400000445A0EB010070474FEAC40420F003004C
:1004100050F8082B21F0030151F8083B0CFA04F4C2
:1004200062EA040263EA0403C9E710F003041AD085
:10043000A1EB040120F00300E40750F8042B06D0E0
:100440000FD28B785FFAA2F4E41A06D12BB1CB78E5
:100450005FFAB2F4E41A00D11BB920465DF8104BE4
:10046000704701F1040150F8042BCC0721F003017F
:1004700051F8043B48D824D222F07F4482FA4CF54C
:1004800094EA1325A5FA8CF50AD165B951F8043B15
:1004900084EA0204B4EB036F0ED150F8042BEBE7AF
:1004A0004FEA132355E035F07F454DD10878FDE83C
:1004B0000445C0F1000070474FEA126203F0FF03E9
:1004C00047E002EA1C4482FA4CF594EA1345A5FA87
:1004D0008CF50AD165B951F8043B84EA0204B4EB07
:1004E000034F0CD150F8042BEBE74FEA134330E0F5
:1004F00015EA1C4528D10B884FEA124229E04FEA41
:10050000124203EA1C4324E002F0FF0482FA4CF595
:1005100094EA1365A5FA8CF50AD165B951F8043B44
:1005200084EA0204B4EB032F09D150F8042BEBE763
:100530004FEA13630DE015F0FF0F05D10B684FEA8A
:10054000122223F07F4304E04FF00000FDE8044551
:10055000704712BA1BBA82FA4CF482EA0304A4FA76
:100560008CF5B5FA85F402FA04F203FA04F34FEAC3
:100570001260FDE80445A0EB136070470000000026
:1005800001F0FF01102A2BDB10F0070F08D010F844
:10059000013B013A8B422DD010F0070F42B3F6D148
:1005A000F0B441EA012141EA014122F007047FF061
:1005B00000070023F0E80256083C85EA010586EAB8
:1005C000010685FA47F5A3FA87F586FA47F6A5FAF4
:1005D00087F68EB9EED1F0BC01F0FF0102F0070200
:1005E00032B110F8013B013A83EA010313B1F8D1AB
:1005F0000020704701387047002D06BF354603388C
:10060000073815F0010F07D1013015F4807F02BFC4
:10061000013015F4C03F0130F0BC0138704700BF15
:1006200081F0004102E000BF83F0004330B54FEAA3
:1006300041044FEA430594EA050F08BF90EA020F10
:100640001FBF54EA000C55EA020C7FEA645C7FEAA3
:10065000655C00F0E2804FEA5454D4EB5555B8BFC6
:100660006D420CDD2C4480EA020281EA030382EA37
:10067000000083EA010180EA020281EA0303362DC9
:1006800088BF30BD11F0004F4FEA01314FF4801C9C
:100690004CEA113102D0404261EB410113F0004FAE
:1006A0004FEA03334CEA133302D0524263EB430365
:1006B00094EA050F00F0A780A4F10104D5F1200E03
:1006C0000DDB02FA0EFC22FA05F2801841F100015E
:1006D00003FA0EF2801843FA05F359410EE0A5F132
:1006E00020050EF1200E012A03FA0EFC28BF4CF063
:1006F000020C43FA05F3C01851EBE37101F0004519
:1007000007D54FF0000EDCF1000C7EEB00006EEB25
:100710000101B1F5801F1BD3B1F5001F0CD34908AF
:100720005FEA30004FEA3C0C04F101044FEA445206
:1007300012F5800F80F09A80BCF1004F08BF5FEA8D
:10074000500C50F1000041EB045141EA050130BD6D
:100750005FEA4C0C404141EB0101013C28BFB1F57F
:10076000801FE9D291F0000F04BF01460020B1FACA
:1007700081F308BF2033A3F10B03B3F120020CDA9D
:100780000C3208DD02F1140CC2F10C0201FA0CF07B
:1007900021FA02F10CE002F11402D8BFC2F1200CE0
:1007A00001FA02F120FA0CFCDCBF41EA0C01904096
:1007B000E41AA2BF01EB0451294330BD6FEA0404DF
:1007C0001F3C1CDA0C340EDC04F11404C4F12002CA
:1007D00020FA04F001FA02F340EA030021FA04F3DC
:1007E00045EA030130BDC4F10C04C4F1200220FA33
:1007F00002F001FA04F340EA0300294630BD21FA71
:1008000004F0294630BD94F0000F83F4801306BF36
:1008100081F480110134013D4EE77FEA645C18BF2A
:100820007FEA655C29D094EA050F08BF90EA020FC1
:1008300005D054EA000C04BF1946104630BD91EAB9
:10084000030F1EBF0021002030BD5FEA545C05D1BC
:100850004000494128BF41F0004130BD14F58004FB
:100860003CBF01F5801130BD01F0004545F0FE416F
:1008700041F470014FF0000030BD7FEA645C1ABFA4
:10088000194610467FEA655C1CBF0B46024650EADB
:10089000013406BF52EA033591EA030F41F4002107
:1008A00030BD00BF90F0000F04BF0021704730B58D
:1008B0004FF4806404F132044FF000054FF0000162
:1008C00050E700BF90F0000F04BF0021704730B523
:1008D0004FF4806404F1320410F0004548BF4042F8
:1008E0004FF000013EE700BF42004FEAE2014FEA4D
:1008F00031014FEA02701FBF12F07F4393F07F4F28
:1009000081F06051704732F07F4208BF704793F02A
:100910007F4F04BF41F40021704730B54FF460743D
:1009200001F0004521F000411CE700BF50EA010240
:1009300008BF704730B54FF000050AE050EA0102E9
:1009400008BF704730B511F0004502D5404261EB59
:1009500041014FF4806404F132045FEA915C3FF49A
:10096000D8AE4FF003025FEADC0C18BF03325FEA37
:10097000DC0C18BF033202EBDC02C2F1200300FAE8
:1009800003FC20FA02F001FA03FE40EA0E0021FA0D
:1009900002F11444BDE600BF70B54FF0FF0C4CF4FB
:1009A000E06C1CEA11541DBF1CEA135594EA0C0FAD
:1009B00095EA0C0F00F0DEF82C4481EA030621EAE8
:1009C0004C5123EA4C5350EA013518BF52EA033523
:1009D00041F4801143F4801338D0A0FB02CE4FF0D5
:1009E0000005E1FB02E506F00042E0FB03E54FF005
:1009F0000006E1FB03569CF0000F18BF4EF0010EFD
:100A0000A4F1FF04B6F5007F64F5407404D25FEAF8
:100A10004E0E6D4146EB060642EAC62141EA5551AB
:100A20004FEAC52040EA5E504FEACE2EB4F1FD0CED
:100A300088BFBCF5E06F1ED8BEF1004F08BF5FEA6B
:100A4000500E50F1000041EB045170BD06F000461D
:100A500046EA010140EA020081EA0301B4EB5C04CA
:100A6000C2BFD4EB0C0541EA045170BD41F48011C2
:100A70004FF0000E013C00F3AB8014F1360FDEBFE7
:100A8000002001F0004170BDC4F10004203C35DAC3
:100A90000C341BDC04F11404C4F1200500FA05F346
:100AA00020FA04F001FA05F240EA020001F00042E7
:100AB00021F0004110EBD37021FA04F642EB06015D
:100AC0005EEA430E08BF20EAD37070BDC4F10C0487
:100AD000C4F1200500FA04F320FA05F001FA04F24B
:100AE00040EA020001F0004110EBD37041F1000137
:100AF0005EEA430E08BF20EAD37070BDC4F1200542
:100B000000FA05F24EEA020E20FA04F301FA05F2A9
:100B100043EA020321FA04F001F0004121FA04F251
:100B200020EA020000EBD3705EEA430E08BF20EA21
:100B3000D37070BD94F0000F0FD101F0004640005B
:100B400041EB010111F4801F08BF013CF7D041EADD
:100B5000060195F0000F18BF704703F000465200E1
:100B600043EB030313F4801F08BF013DF7D043EAB2
:100B70000603704794EA0C0F0CEA135518BF95EA68
:100B80000C0F0CD050EA410618BF52EA4306D1D1EF
:100B900081EA030101F000414FF0000070BD50EA0E
:100BA000410606BF1046194652EA430619D094EA98
:100BB0000C0F02D150EA013613D195EA0C0F05D182
:100BC00052EA03361CBF104619460AD181EA0301D6
:100BD00001F0004141F0FE4141F470014FF000008E
:100BE00070BD41F0FE4141F4780170BD70B54FF029
:100BF000FF0C4CF4E06C1CEA11541DBF1CEA1355A9
:100C000094EA0C0F95EA0C0F00F0A7F8A4EB05048A
:100C100081EA030E52EA03354FEA013100F0888081
:100C20004FEA03334FF0805545EA131343EA12634A
:100C30004FEA022245EA111545EA10654FEA0026FF
:100C40000EF000419D4208BF964244F1FD0404F5B8
:100C5000407402D25B084FEA3202B61A65EB030514
:100C60005B084FEA32024FF480104FF4002CB6EBD1
:100C7000020E75EB030E22BFB61A754640EA0C0051
:100C80005B084FEA3202B6EB020E75EB030E22BF91
:100C9000B61A754640EA5C005B084FEA3202B6EBD2
:100CA000020E75EB030E22BFB61A754640EA9C0091
:100CB0005B084FEA3202B6EB020E75EB030E22BF61
:100CC000B61A754640EADC0055EA060E18D04FEA1F
:100CD000051545EA16754FEA06164FEAC30343EABF
:100CE00052734FEAC2025FEA1C1CC0D111F4801F8C
:100CF0000BD141EA00014FF000004FF0004CB6E785
:100D000011F4801F04BF01430020B4F1FD0C88BF23
:100D1000BCF5E06F3FF6AFAEB5EB030C04BFB6EB2E
:100D2000020C5FEA500C50F1000041EB045170BD21
:100D30000EF0004E4EEA113114EB5C04C2BFD4EB4E
:100D40000C0541EA045170BD41F480114FF0000ED2
:100D5000013C90E645EA060E8DE60CEA135594EA4E
:100D60000C0F08BF95EA0C0F3FF43BAF94EA0C0F51
:100D70000AD150EA01347FF434AF95EA0C0F7FF4C6
:100D800025AF104619462CE795EA0C0F06D152EA1A
:100D900003353FF4FDAE1046194622E750EA4106FE
:100DA00018BF52EA43067FF4C5AE50EA41047FF40F
:100DB0000DAF52EA43057FF4EBAE12E74FEA410272
:100DC000B2F1E04324BFB3F5001CDCF1FE5C0DD9A9
:100DD00001F0004C4FEAC0024CEA5070B2F1004FF3
:100DE00040EB830008BF20F00100704711F0804FF6
:100DF00021D113F13872BCBF01F00040704741F4BB
:100E000080114FEA5252C2F11802C2F1200C10FABE
:100E10000CF320FA02F018BF40F001004FEAC123A2
:100E20004FEAD32303FA0CFC40EA0C0023FA02F346
:100E30004FEA4303CCE77FEA625307D150EA01331C
:100E40001EBF4FF0FE4040F44000704701F00040EC
:100E500040F0FE4040F40000704700BF53B94AB96B
:100E6000002908BF00281CBF4FF0FF314FF0FF30B2
:100E700000F02AB8ADF1080C6DE904CE00F0BDF920
:100E8000DDF804E0DDE9022304B07047D0B50C4B77
:100E9000002206460F46FFF77FFD00F09FF804464C
:100EA000FFF700FD074B0022FFF776FD02460B46D9
:100EB00030463946FFF7B8FB00F090F82146D0BD28
:100EC0000000F03D0000F041704700BF4FF0FF3CD4
:100ED00006E000BF4FF0010C02E000BF4FF0010C34
:100EE0004DF804CD4FEA410C7FEA6C5C4FEA430CAD
:100EF00018BF7FEA6C5C1BD001B050EA410C0CBFFC
:100F000052EA430C91EA030F02BF90EA020F00205D
:100F1000704710F1000F91EA030F58BF994208BFC4
:100F200090422CBFD8176FEAE37040F00100704781
:100F30004FEA410C7FEA6C5C02D150EA013C07D1D8
:100F40004FEA430C7FEA6C5CD6D152EA033CD3D023
:100F50005DF8040B704700BF8446104662468C461D
:100F60001946634600E000BF01B5FFF7B7FF002850
:100F700048BF10F1000F01BD4DF808EDFFF7F4FF79
:100F80000CBF012000205DF808FB00BF4DF808ED04
:100F9000FFF7EAFF34BF012000205DF808FB00BF27
:100FA0004DF808EDFFF7E0FF94BF012000205DF849
:100FB00008FB00BF4DF808EDFFF7CEFF94BF0120FE
:100FC00000205DF808FB00BF4DF808EDFFF7C4FFF7
:100FD00034BF012000205DF808FB00BF4A0011D299
:100FE00012F5001211D20DD56FF47873B3EB625283
:100FF0000ED44FEAC12343F0004343EA505323FA8F
:1010000002F070474FF00000704750EA013002D103
:101010004FF0FF3070474FF000007047844641EAC0
:10102000000313F003036DD1403A41D351F8043B60
:1010300040F8043B51F8043B40F8043B51F8043BB2
:1010400040F8043B51F8043B40F8043B51F8043BA2
:1010500040F8043B51F8043B40F8043B51F8043B92
:1010600040F8043B51F8043B40F8043B51F8043B82
:1010700040F8043B51F8043B40F8043B51F8043B72
:1010800040F8043B51F8043B40F8043B51F8043B62
:1010900040F8043B51F8043B40F8043B51F8043B52
:1010A00040F8043B51F8043B40F8043B403ABDD2C1
:1010B000303211D351F8043B40F8043B51F8043B63
:1010C00040F8043B51F8043B40F8043B51F8043B22
:1010D00040F8043B103AEDD20C3205D351F8043BF2
:1010E00040F8043B043AF9D2043208D0D2071CBFBE
:1010F00011F8013B00F8013B01D30B8803806046E7
:10110000704700BF082A13D38B078DD010F003035C
:101110008AD0C3F10403D21ADB071CBF11F8013BCC
:1011200000F8013B80D331F8023B20F8023B7BE71B
:10113000043AD9D3013A11F8013B00F8013BF9D246
:101140000B7803704B7843708B78837060467047E0
:101150004FEA410C7FEA6C5C02D150EA013C0AD1B3
:101160004FEA430C7FEA6C5C02D152EA033C02D1A5
:101170004FF0000070474FF0010070474FEA410206
:1011800012F5001215D211D56FF47873B3EB6252D9
:1011900012D94FEAC12343F0004343EA505311F000
:1011A000004F23FA02F018BF404270474FF0000092
:1011B000704750EA013005D111F0004008BF6FF0D0
:1011C000004070474FF00000704700BF38B5002264
:1011D000002304460D46FFF7D9FE28B920462946CC
:1011E000BDE83840FFF752BE204605F10041FFF749
:1011F0004DFE404261EB410138BD2DE9F047864686
:101200008C460846089E154674461946002B40F049
:10121000C2808542B2FA82F245D94AB1C2F12003B6
:1012200000FA02FC2EFA03F3954043EA0C0C9440BA
:101230004FEA154EA8B2BCFBFEF8230C0EFB18CCEF
:1012400008FB00F943EA0C43994528D9EB1808F14B
:10125000FF3704D2994502D9A8F102072B44A3EB2A
:101260000903A4B2B3FBFEFC0EFB1C330CFB00F025
:1012700044EA0344A04214D92C190CF1FF3304D2E0
:10128000A04202D9ACF102032C44241A43EA0740DD
:101290001EB1D440002334607360BDE8F087474638
:1012A000DDE76346F1E792BB431B01214FEA154E90
:1012B000AFB2B3FBFEFC200C0EFB1C330CFB07F89B
:1012C00040EA0343984562D9EB180CF1FF3004D291
:1012D000984502D9ACF102002B44A3EB0803A4B259
:1012E000B3FBFEFC0EFB1C330CFB07F744EA034484
:1012F000A7424ED92C190CF1FF3304D2A74202D9D0
:10130000ACF102032C44E41B43EA0040C0E7C2F105
:10131000200320FA03F1954090402EFA03F3034393
:101320004FEA154EAFB2B1FBFEFC0EFB1C10190CC0
:101330000CFB07F841EA0041884504FA02F422D97F
:1013400069180CF1FF3004D2884502D9ACF10200D3
:101350002944A1EB08019BB2B1FBFEFC0EFB1C1162
:101360000CFB07F743EA01439F420ED9EB180CF13F
:10137000FF3104D29F4202D9ACF102012B44DB1BA6
:1013800041EA004192E76046E3E76146F7E76046DD
:10139000A3E76346B7E7834206D916B9002108469A
:1013A0007BE7C6E900E0F9E7B3FA83F78FB9834238
:1013B00001D3724508D8BEEB020460EB03030120A1
:1013C0009C461EB9002168E73846FAE7C6E9004C9A
:1013D000F8E7C7F1200CBB4022FA0CF41C432EFAAC
:1013E0000CF120FA0CF3B84001434FEA14490EFA0D
:1013F00007F5B3FBF9F81FFA84FE09FB18300B0C54
:1014000008FB0EFA43EA00439A4502FA07F240D974
:10141000E31808F1FF3004D29A4502D9A8F102007E
:101420002344A3EB0A0389B2B3FBF9F809FB183391
:1014300008FB0EFE41EA03418E452CD9611808F1E4
:10144000FF3304D28E4502D9A8F10203214443EAB6
:101450000040A0FB0298A1EB0E014145CE46434659
:1014600002D306D14D4504D2B9EB020E68EB04035A
:101470000138002EA6D0B5EB0E0261EB030101FA94
:101480000CFC22FA07F34CEA0303F940C6E90031E9
:1014900098E74046C5E74346D9E700000000000052
:1014A0002DE9F04F012987B084468E4664D8002983
:1014B00042D033A3D3E90023CDE9042332A3D3E9F7
:1014C0000023CDE9002332A3D3E9002332A7D7E9D3
:1014D0000067CDE9022332A5D5E900450FF2C80B1C
:1014E000DBE900AB32A1D1E9000133A3D3E900234A
:1014F000CCE90A01DDE90401CCE90C01DDE90001D8
:101500004FF000084FF00009CCE90E01DDE90201BF
:10151000CCE90089CCE90289CCE90467CCE906452D
:10152000CCE908ABCCE91223CCE91001CCF8D0E02F
:10153000002007B0BDE8F08F21A3D3E90023CDE957
:10154000042321A3D3E90023CDE9002320A3D3E979
:10155000002321A7D7E90067CDE9022320A5D5E91B
:1015600000450FF2840BDBE900AB21A1D1E90001BA
:1015700021A3D3E90023BBE76FF07400D9E700BFD4
:10158000310BC0FF6726336711155868874AB48E40
:10159000A78FF9640D2E0CDBD89E05C15D9DBBCBDA
:1015A00007D57C362A299A6217DD70305A01599185
:1015B00039590EF7D8EC2F15A44FFABE1D48B54780
:1015C000D182E6AD7F520E511F6C3E2B8C68059B7D
:1015D0006BBD41FBABD9831F08C9BCF367E6096A41
:1015E0003BA7CA8485AE67BB2BF894FE72F36E3CB2
:1015F000F1361D5F3AF54FA579217E1319CDE05BD9
:101600002DE9F04F016C9FB016461F46CDE90467E7
:101610002B9D039049B1426C4A60012393400446DC
:101620008B600BF0ABFC00232364B7F10009B4BF5F
:10163000012300232B60764BBCBF29F00049CDF875
:10164000149033EA090300F0AA80DDE90434002293
:10165000184621460023CDE90801FFF78DFC80469E
:1016600068B12A9A012313602C9B13B12C9A694B01
:101670001360694B0A930A981FB0BDE8F08F1CAB4A
:1016800001931DAB00930398DDE908230CF088F863
:101690005FEA1955824640F09880DDE91C85454493
:1016A00005F23243202B40F38383C3F1400309FA50
:1016B00003F905F2124326FA03F349EA0300FFF7A0
:1016C000F1F80123013DA1F1F8711193534B002270
:1016D000FEF7AAFF48A3D3E90023FFF75DF948A36B
:1016E000D3E90023FEF7A2FF064628460F46FFF780
:1016F000E9F845A3D3E90023FFF74EF902460B466C
:1017000030463946FEF792FF06460F46FFF736FD94
:1017100000228346002330463946FFF737FC002875
:1017200040F01A83A8EB0508BBF1160F08F1FF344F
:1017300000F28B813A4D05EBCB05D5E90023DDE9BD
:101740000801FFF723FC002870D00023002C0BF1C8
:10175000FF3B1093C0F27E8100230B93BBF1000F7F
:101760006ADA0B9BA3EB0B030B93CBF10003CDE9E0
:101770000EB3289B092B4FF0000B65D8052B40F3C7
:101780001C83043B28930025289B023B032B00F27B
:101790002386DFE813F060045D04540438042A9AB9
:1017A000C9F3130942F20F7359EA060913601CD1F9
:1017B0002C9B002B00F02B861A4B0A9308332C9A93
:1017C0000A9813601FB0BDE8F08FDDE90812C2F37C
:1017D0001303084643F07F51CDF84480A5F2FF354E
:1017E000DDF8708041F4401170E72C9B002B40F035
:1017F000E7830D4B0A933EE761436F63A787D23FB0
:10180000B3C8608B288AC63FFB799F501344D33FEF
:101810000000F07FDD6B0108DC6B01080000F83F81
:10182000C03101082C6C0108386C0108B8F1000FB8
:1018300040F3608410900B9000230F93289BCDF809
:1018400038B0092B5C4499D90023CDE92833012510
:101850004FF0FF330C950693039B00215964069BC0
:10186000189303980BF064FB0A90002800F0BD85E4
:10187000039B0A9A1A64069B0E2B00F21581002D19
:1018800000F012810E9A002A40F33B84B24D02F020
:101890000F0305EBC303D3E9008913461511DA05DD
:1018A00040F1FA83AD4BDDE90801D3E90823FFF7E6
:1018B0009DF9CDE9120105F00F0503277DB1A74E73
:1018C000EB0708D540464946D6E90023FFF764F800
:1018D0000137804689466D1006F10806F0D1424670
:1018E0004B46DDE91201FFF781F980468946109BDE
:1018F00043B19B4B002240464946FFF747FB002877
:1019000040F0F1843846FEF7DDFF42464B46FFF7D4
:1019100043F8944B0022FEF789FE069B0646A1F190
:101920005077002B00F0A9800E9B1993069B129311
:101930000A9B894D49464046CDE914675E1CFFF776
:101940001DFC129905EBC10353E902120746CDE9CC
:101950001612FEF7B7FF02460B4640464946FEF711
:1019600063FE89460C993037DDE916238046FFB2C5
:10197000002900F053847C490020FFF737F9DDE9A6
:101980001423FEF751FE0A9D02460B46CDE91423AF
:101990002F7042464B46FFF717FB002840F0978414
:1019A000CDE91AB4CDF858A0129DDDE914AB00279B
:1019B0002AE00137AF4280F2DE846C4B5046594634
:1019C0000022FEF7E9FF694B002282468B46404623
:1019D0004946FEF7E1FF89468046FFF7CFFB044604
:1019E000FEF770FF02460B4640464946FEF71CFED6
:1019F000303406F8014B52465B4680468946FFF775
:101A0000C5FA002840F0B48442464B4654490020B1
:101A1000FEF70AFE52465B46FFF7B8FA0028C8D028
:101A2000199BDDF858A00A9A374603F1010802E035
:101A3000974200F07C843E4617F8013D392BF7D0E1
:101A40000133DBB23B70454675E10123002C109356
:101A5000BFF682AEC8F101030B9300247EE6384640
:101A6000FEF730FF42464B46FEF796FF3D4B002205
:101A7000FEF7DCFD0646A1F150773D4B4046494656
:101A80000022FEF7D1FD32463B4680468946FFF7ED
:101A90009BFA002840F05A8440464946324607F1F6
:101AA0000043FFF773FA28BB1D9B002BC0F2928006
:101AB0000E9A0E2A00F38E80274D0E9B05EBC30570
:101AC000D5E90034CDE90434299B002B19DA069BB3
:101AD000002B16DC0ED1264B0022DDE90401FEF7B7
:101AE0005BFF02460B46DDE90801FFF759FA0028C3
:101AF00000F02C844FF000090A9E4F46299BDD43DD
:101B000025E2DDE90445DDE9088922462B46404609
:101B10004946FFF76BF8FFF731FB0646FEF7D2FEAA
:101B200022462B46FEF738FF0A9F0B4602464946DF
:101B30004046FEF779FD06F1300307F8013B069BAE
:101B4000012B00F012830125CDF818A09946DDE99C
:101B500004ABA8462CE000BFC03101089831010851
:101B60000000F03F00001C400000E03F0000244067
:101B70000000144052465B4620462946FFF736F8DF
:101B8000FFF7FCFA0646FEF79DFE52465B46FEF75F
:101B900003FF08F101080B46024629462046FEF7DE
:101BA00043FD06F13003C84507F8013B00F0DB8236
:101BB000B94B0022FEF7F0FE0022002304460D463A
:101BC000FFF7DAF90028D5D00E9DDDF818A0013511
:101BD0003E46B0E00C9A002A40F0D28000230F9DD0
:101BE0000B9E0C931F4656B1002C08DDA6420B9AA3
:101BF0003346A8BF2346D21A0B92F61AE41A0F9B5B
:101C000053B10C9B13B1002D40F0E88251460F9A5E
:101C100003980BF09BFB8246039801210BF0B2FA6C
:101C20008146BBF1000F40F0B681289B012B40F3A9
:101C3000CC810120204410F01F0000F09A80C0F1F8
:101C40002003042B40F3DA810B9BC0F11C000344FA
:101C50000B93064404440B9B002B05DD514603986F
:101C60001A460BF0CDFB8246002C05DD4946039851
:101C700022460BF0C5FB8146109B002B40F0708183
:101C8000069B002B40F348810C9B002B40F0A48066
:101C90000E9D0135DDF82880069CDDF80CB001268C
:101CA00007E0514600230A2258460BF071F901362D
:101CB0008246494650460AF0F5FEA64200F130033E
:101CC00008F8013BEDDB069A002AC8BF16460A9ABF
:101CD000D8BF012602EB060B0024514601220398CF
:101CE00004930BF08DFB494682460BF001FC002863
:101CF00040F3E3810A9A02E05A4500F0E9815E462A
:101D00000BF1FF3B16F8013C392BF5D001338BF872
:101D10000030DDF80C80494640460BF02FF957B1F2
:101D20002CB1BC4203D0214640460BF027F9039862
:101D300039460BF023F9039851460BF01FF90023A5
:101D400033702A9B1D602C9B002B3FF494AC0A98A7
:101D50001E601FB0BDE8F08F5846FEF7B3FD324657
:101D60003B46FFF709F900287FF4DCAC0BF1FF3BA1
:101D7000D8E41C230B9A1A440B921E441C446AE7B5
:101D8000289A012A40F3A981069A0F9B551EAB425F
:101D9000C0F26B81002AA3EB050580F2DD820B9B6C
:101DA000069A9E1A039801210BF0ECF907461AE7F0
:101DB000C3F1200306FA03F081E40125E4E4394687
:101DC000002303980A220BF0E3F8189B002B074628
:101DD00040F3EF820E950693002E00F33F81BBF196
:101DE000000F40F0DF81B8460A9E069C731E1C441B
:101DF000049B0C9403F00103039C0F934946504647
:101E00000AF050FE3946834650460BF071FB4246BD
:101E10004946054620460BF08BFBC26801460BF194
:101E20003003002A3AD1089050460B930BF060FB28
:101E30000899069020460BF0A1F8069A0B9B002A01
:101E40005AD1289A1AB90F9A002A00F09A82002DC6
:101E500045DB0C9AB346B2420BF8013B00F0B98166
:101E6000514600230A2220460BF092F8474582464D
:101E700039464FF000034FF00A02204636D00BF0EF
:101E800087F84146074600230A2220460BF080F8D7
:101E90005E468046B2E700BF0000244003980693E8
:101EA0000BF06CF8002D069B06DB049A289902F0D3
:101EB00001020D432A432AD151460122039804937B
:101EC0000BF09EFA494682460BF012FB0028049B59
:101ED00040F3E880392B00F02F820BF131030E9D87
:101EE00006F8013B3C460135474612E70BF050F837
:101EF0005E460746804681E7002DC0F27D82289924
:101F00000D430F990D4300F07782002AA1DD392B94
:101F100000F012820133E2E7289B022B7FF7B4AE78
:101F2000069B002B40F01D814946052203980BF0CB
:101F30002FF80146814650460BF0DAFA002840F3AC
:101F400010810A9E0E9D312306F8013B013503984E
:101F5000494601350BF012F8002F7FF4E8AEEAE6AF
:101F6000494650460BF0C4FA0028BFF689AE5146E8
:101F7000002303980A220BF00BF80E9B5D1E0C9BAE
:101F80008246002B7FF41BAF189B002B40F3FF8190
:101F90000E9D06937EE601465A4603980BF0D6F94D
:101FA000289B012B81466CDD4FF0000BD9F81030D7
:101FB00009EB830318690BF093F8C0F1200039E6B0
:101FC000924B0A930333FFF7FABB049B002B7FF479
:101FD00030AEDDE90412C2F31303002B7FF429AE07
:101FE0008B4B134023B10B9B01330B930134012323
:101FF000BBF1000F40F0AE819B461AE63FF42BAEDA
:10200000C0F13C03B6E601230C93299B0E9A1344BE
:1020100018930133012B1E460693B8BF0126172ED5
:1020200040F3D581012204235B0003F11400B04288
:10203000114602F10102F7D9039B596411E401230F
:102040000C93299B002B33DD189306931E46E6E77D
:1020500000230C93D9E700230C93F2E73946039849
:1020600032460BF0CDF90746B9E60F9B069A0F955D
:10207000EB1A9B440B9B1E46134414440B93002500
:1020800090E6049B002B8FD1DDE90401C1F313031B
:102090000A46002B88D1A3E7DDE908230227CDE912
:1020A00012230BE47FF41BAFDA077FF518AF11E7BB
:1020B000012329930693FFF7CFBB03D1049BDB07D2
:1020C0003FF518AE5E461BF8013D302BFAD020E6F6
:1020D0000A9A3123013513701BE6119A002A00F089
:1020E000F98003F233430B9A0F9D16461A441C44A1
:1020F0000B9257E6C8F1010304460B931090FFF7CB
:102100009BBB00F0EB800E9B424D5E4206F00F033E
:1021100005EBC303D3E90023DDE90801FEF73CFC2E
:102120003511CDE9120100F04D813B4E002302270D
:1021300080468946E80709D5D6E900234046494646
:10214000FEF72AFC01378046894601236D1006F10F
:102150000806EFD1002B7FF4CAABDDE91289FFF747
:10216000C6BB0A9ECAE4DDF818A00E9D02460B46C7
:10217000FEF75CFA02460B46CDE906230135DDE9A0
:102180000423A846FEF720FF40B9DDE90423DDE97A
:102190000601FEF7F1FE18B1F10701D50A9A4AE4EB
:1021A0003E46C8E5796803980AF0C2FE0546002855
:1021B00000F026813B6902339A0007F10C010C30D4
:1021C000FEF72CFF0398294601220BF019F98046EF
:1021D0000AE60E9D3C46013547467EE5DDF80C805B
:1021E00039462A4640460BF0B1F8524601460746AA
:1021F00040460AF0F5FF5146824640460AF0BEFED0
:102200000F9B5B1B0F933FF407ADFFE4386C010895
:102210000000F07FC031010898310108DDE91401A8
:10222000FEF7BAFB0A9B1F70129B012BCDE90C0134
:1022300000F0C680129F0A9BCDF844B01F447C4B2F
:10224000002240464946FEF7A7FB89468046FEF736
:1022500095FF8346FEF736FB0BF1300B02460B462B
:1022600040464946FEF7E0F906F801BBB742804612
:102270008946E4D1DDF844B06E4B0022DDE90C0163
:10228000FEF7D4F902460B4640464946FEF79CFE4F
:10229000002867D1DDE90C2366490020FEF7C4F968
:1022A00002460B4640464946FEF770FE48B91D9B64
:1022B000002BFFF693AC0E9B0E2B3FF78FACFFF776
:1022C000FCBB3E46013F16F8013C302BF9D0199D6E
:1022D000013530E51C9BC3F1360304E7DDE90889CD
:1022E0000227FFF704BB069B002B3FF4B8AB189BFB
:1022F000002B7FF7D9AB0E9A1293013A4C4B1992EF
:10230000404600224946FEF747FB80468946781C36
:10231000FEF7D8FA42464B46FEF73EFB464B0022FC
:10232000FEF784F90646A1F15077FFF701BB08F1EB
:1023300001083123FFF786BB0E9D0A9AB346392365
:102340003C460BF8013B01354746D8E44FF0000905
:102350004F46F6E59B4629E60B9B1E461344144464
:102360000B931FE5199B0A9A03F10108FFF763BB62
:10237000DDF858A0ABE7DDE91AB4DDF858A0FFF7A7
:1023800093BB392BD8D0002D3FF7A7ADA7E5289BED
:10239000022B0ADC189B069349460E9D0AF082FB2D
:1023A0000A9A00F1300313708DE4189B06930E9582
:1023B000B6E5289B022BF8DC189B0E9506930BE5DF
:1023C000374659E7DDE912890227FFF790BA039BE8
:1023D00000215964FFF745BA039B00255D64294637
:1023E00018460AF0A5FD0A90A8B9144B144800221B
:1023F0004FF4D5710CF088F9002A7FF770AD5BE5DA
:102400000E4B0F482A4640F2EA210CF07DF90D4BA5
:102410000A93FFF730B9039B0A9A1A644FF0FF330F
:102420000122299518930C920693FFF73DBB00BF3C
:10243000000024400000E03F00001C403C6C01080C
:10244000506C01082C6C01082DE9F04F1C46B04B74
:102450009FB0002583461868079288461A95089011
:10246000FDF7AEFE002181460020CDE90401424681
:102470001992174612F8013B2D2B5FD801A151F894
:1024800023F000BF5B2600083D2500083D2500081D
:102490003D2500083D2500083D2500083D25000894
:1024A0003D2500083D25000871240008712400081E
:1024B0007124000871240008712400083D250008DB
:1024C0003D2500083D2500083D2500083D25000864
:1024D0003D2500083D2500083D2500083D25000854
:1024E0003D2500083D2500083D2500083D25000844
:1024F0003D2500083D2500083D2500083D25000834
:102500003D250008712400083D2500083D250008F0
:102510003D2500083D2500083D2500083D25000813
:102520003D2500083D2500083D2500083D25000803
:102530008D2C00083D250008A12C000800220992DE
:10254000302B00F0958000220A922F2B1C4640F27F
:10255000F5844FF0000A38465646554613E00130E0
:10256000082D1990C8BF0AEB8A0A0478C6BF03EB8E
:102570004A03A3F1300AA2F130062F2C05F1010520
:10258000234640F3B58006EB8602392C03EB42026A
:10259000E5DD08994A460CF099FE0346002878D1FB
:1025A00019990A464944199112F80940002D40F042
:1025B0007185302C40F055850A4613460132199238
:1025C0001478302CF9D0C1F101010B44A4F131028F
:1025D000082A36D8199F03F101090023A4F1300E0F
:1025E00001253C46089306EB86060EEB46060023C3
:1025F000621C19926478A4F13001092900F22B833E
:10260000199C01338E460029F2D0012B08BF05F139
:10261000010C00F0D88603EB050C0CF1FF3003E051
:102620005600A84200F0CF86082D06EB860205F181
:102630000105F5D9102DDCBF0AEB8A0A4FEA4A0AD8
:10264000EFE7652C40F02F830022089291464FF06F
:10265000010C0A9A1A4340F01783079B00260027B3
:102660000BB1C3F80080304639461FB0BDE8F08F8B
:102670007B7803F0DF03582B00F01A840137199799
:102680003B78302BFAD0002B00F0C68201220A9250
:102690005BE70023089599469C46652C3ED0452C67
:1026A0003CD000220C92002D40F086800A9A1A43FA
:1026B00040F0B282BCF1000FCFD1692C00F08284CF
:1026C00000F3C583492C00F07D844E2CC5D11149FF
:1026D00019A80CF0F5FC0028BFD0199B1B78282BFB
:1026E00000F03D850C480CF0EBFD06460F4695E2E8
:1026F00008994A460CF0EAFD03460028C9D1199A08
:10270000089502EB0901199112F80940994672E700
:10271000F46E0108286D0108606D0108002D98D045
:10272000DDF8648008F10102199298F801402B2C21
:1027300000F094822D2C00F0818200220B92A4F1F3
:102740003000092800F28282302C199A0AD1013215
:1027500019921478302CFAD0A4F131010829A0D8AC
:10276000A4F13000511C199154782F2C40F3F783B9
:102770008E460C9708E0013119919EF801402F2CEC
:10278000A7F1300006DD8E4600EB8007392C04EB04
:102790004707F0DD891A08290C9F40F3E08344F6CF
:1027A0001F620C920B9A002A3FF47DAF0C9A5242A2
:1027B0000C92002D3FF47AAF089A1346002A08BF06
:1027C0002B4630460893FEF76DF80B460246CDE9DE
:1027D00004230C9B102DA3EB09032C46A8BF102447
:1027E000092D0B9316DD4E4B03EBC40353E9122363
:1027F000FEF7D2F8CDE904015046FEF753F8024641
:102800000B46DDE90401FDF711FF0F2DCDE90401B1
:1028100000F3AB810B9B002B00F033820B9B40F34A
:102820005D82162B40F3A2830B9AC5F125039342D8
:1028300080F21A842C1B144414F00F000AD038497B
:1028400001EBC001DDE90423D1E90001FEF7A4F8A2
:10285000CDE9040134F00F0344D0B3F59A7F00F3BF
:102860006383102B2F4A4FEA231440F32285DDE9BE
:10287000040100230A9790469A46174614F0010F68
:102880000AF1010A4FEA640404D0D8E90023FEF7F4
:1028900083F80123012C08F10808EFD13A460A9F7A
:1028A0000BB1CDE90401059BA3F1547302EBCA0AF5
:1028B0000593DDE90423DAE90001FEF76DF81A4B10
:1028C000CDE904010B400A4618498B4200F22C83E3
:1028D000A1F580118B4240F23D8415494FF0FF3342
:1028E000CDE9043100230A93089A00962B46394615
:1028F00058460AF09DFB1590002800F015830B9AAE
:102900000C9B002AA9EB0303A8BF002310934FF0F0
:10291000000A22EAE273CDF820A01493E3E000BF9E
:10292000C0310108983101080000F07F0000A07C50
:10293000FFFFEF7FD21A1F2AA4EB020400F34A82A2
:10294000012393401E4600250A9BA0444C44A14508
:1029500098444B46A8BF23464345A8BF4346002B97
:1029600004DDE41AA8EB0308A9EB0309109B002B74
:1029700000F3D681002C00F3EC810B9B002B00F3BD
:102980001F82B8F1000F00F30F82B9F1000F08DDCC
:1029900051464A4658460AF033FD8246002800F068
:1029A0000C821A993A4658460AF0C2FD089000284F
:1029B00000F00382089A0023D1681191D360514638
:1029C0000AF096FD0028C0F2FB83DDF8149000F0B9
:1029D0006E83089851460AF041FF00224FF0804371
:1029E00004460D46FEF7DCFA002800F08981119BB1
:1029F000002B40F0FB81049B002B40F08682C9F342
:102A00001303002B40F02782AD4B002220462946BD
:102A1000FEF7BCFA002840F04183AA4B2046294625
:102A20000022FDF7B9FF03460C46CDE9123401F14F
:102A300000430E900F93DFF89082A44B09EA080838
:102A40009845DDE90E4500F0D8810A9B1BB3B8F12B
:102A5000D46F20D898A3D3E90023DDE91201FEF753
:102A60009FFAA0B1DDE91201FEF7B8FA012838BFDC
:102A70000120FDF717FF119BCDE91201002B40F05B
:102A8000B58201F1004316901793DDE9164505F173
:102A9000D663A3EB0805DDE90C010AF0FBFD024655
:102AA0000B4620462946FDF777FFDDE90C23FDF7AD
:102AB000BDFDCDE904010C460A9B23B9824B23409E
:102AC000984500F0D1811A9958460AF057FA3946CC
:102AD00058460AF053FA514658460AF04FFA0899F8
:102AE00058460AF04BFA159C584661680AF020FADD
:102AF0000746002800F061812269023204F10C01CE
:102B000092000C30FEF78AFA1CAB01931BAB0093CA
:102B1000DDE904345846CDE90C341A4623460AF060
:102B20003FFE1A90002800F01D81012158460AF04E
:102B300029FB8246002800F040811B9B002BC0F23D
:102B40002D81109ADDF8508003EB02090A9A1C9C33
:102B50009B1A23445E4A013B9342C4F13604FFF6BC
:102B6000E9AE012300251E46EEE60B9B2C1B1C4400
:102B7000002C3FF761AE3FF4B5AE644214F00F0293
:102B80000AD0544B03EBC203DDE90401D3E900236F
:102B9000FEF72CF8CDE9040124113FF4A3AE1F2C5D
:102BA00037DC14F01003DDE9040118BF6A23DFF8F5
:102BB00028810A930023E20704D5D8E90023FDF712
:102BC000EBFE0123641008F10808F4D10BB1CDE944
:102BD00004010A9BA3B1DDE90401C1F30A52C2F169
:102BE0006B03002B0ADD1F2B40F380830020342B66
:102BF000049040F383834FF05C7305936A230A9338
:102C0000DDE9040100220023FEF7B6F900283FF4B5
:102C10006BAE2223CBF8003000260027079A0AB1BA
:102C2000199B1360099B002B3FF41DAD07F1004376
:102C30001F46304639461FB0BDE8F08F01220B9287
:102C400008F10202199298F8024078E50022CDF8C6
:102C500064800C9227E54FF0010C1EE500220B92D8
:102C6000EEE71C9A04921D9A03F2334322F4801279
:102C700042EA03530593200742BF059B43F00043FC
:102C80000593DDE90467C9E7002549E500230993B9
:102C90007A1C19927B78002B3FF4DFAC17464FE487
:102CA00001230993F4E7452C3FF4CEAC4FF0010C1F
:102CB000FCE400BFAFF300800000C0FFFFFFDF4176
:102CC0000000F03F0000E03F0000F07F0000E07FE8
:102CD00002FCFFFFC0310108883201081633FFF6FD
:102CE00044AF0C9BA9EB0302AD4B03EBC203DDE940
:102CF0000401D3E90023FDF779FF06460F468DE76F
:102D0000A84B204629460022FDF746FE119BCDE93F
:102D10001201002B65D101F100430E900F938AE65A
:102D200051461A4658460AF011FB8246002844D004
:102D300001461A9A58460AF053FA00283DD01190DD
:102D40001A9958460AF01AF9119B1A93002C7FF72A
:102D500014AE1A99224658460AF052FB1A900028DF
:102D60007FF40BAEB946054622238F4FCBF80030D7
:102D70000026294658460AF001F9494658460AF005
:102D8000FDF8514658460AF0F9F8159958460AF0E8
:102D9000F5F8089958460AF0F1F83FE7149ADDF87B
:102DA0004090A2EB0308D1E63946424658460AF065
:102DB00027FB074600287FF4E8ADB9461A9DD3E704
:102DC0003946149A58460AF0C1FA074600287FF49B
:102DD000D8ADF2E7754AD31A012202FA03F5164676
:102DE000B2E5DDE91234CDE90E3424E6704C00235F
:102DF000CDE90E34CDE912341DE6A9F154730593E3
:102E0000DDE90445204629460AF044FCDDE90E23AD
:102E1000FDF7C2FD2B462246FDF708FCDFF888913E
:102E2000644B01EA09099945CDE9040140F2828029
:102E3000DDE90C0103F15473994202D106460136D3
:102E4000BBD05D4A4FF0FF33CDE904323BE66E2C38
:102E50003FF43DAC01E4594C0023CDE90E34544C11
:102E60000023CDE91234E6E5DDE912562846314665
:102E7000FEF7ACF9FDF762FD0B46024631462846E7
:102E8000FDF7D2FB119D049BC4F313041D432C4397
:102E90008046894627D13CA3D3E90023FEF776F884
:102EA00000283FF410AEB9461A9DDDE9046760E7DB
:102EB000099B01931AAB02940093414A1BAB19A9D9
:102EC00058460BF00DFE10F0070504463FF4A4AE83
:102ED000062D40F09080079B0BB101371F60002644
:102EE0000027FFF7C0BB2AA3D3E90023FEF74EF863
:102EF0000028D8D128A3D3E9002340464946FEF74D
:102F000063F800283FF4DFADCDE7049B012BA2D18D
:102F1000B9F1000F9FD1B9461A9C22232546CBF860
:102F200000300026002724E72223CBF800301E4F74
:102F3000002673E601F154740594BDE508994A46EC
:102F400038460CF0C3F9002800F0818000239C462D
:102F500008939A461E4699461D46FFF7A0BB44F6C5
:102F60001F629042A8BF10460C901BE40B980C49BE
:102F700001EBC001DDE90423D1E90001FDF70CFDFF
:102F800006460F464AE600BF9535A094FFFFCF3FA7
:102F90009535A094FFFFDF3F35E5AF350000E03FFA
:102FA000C03101080000E03F0000F07FE2FBFFFFBE
:102FB0000000F03FFFFF9F7CFFFFEF7F0000F0BFAE
:102FC000406D0108994919A80CF07AF800283FF4DF
:102FD00044AB199B9649013B19A819930CF070F862
:102FE0000028A4D1199B01331993A0E7DDE912341D
:102FF000CDE9163449E51A9A3AB135211CA80AF0F0
:1030000057FC1A99584609F0B9FF013D1B9B042D46
:103010003FF631AE01A252F825F000BF632C000844
:10302000453000083F30000831300008632C0008AC
:103030004FF0FF336FF00045CDE904351BE67D4BC3
:10304000059318E61C9B04931D9B059313E61999A1
:103050000B464944199113F8094006468246FFF78A
:10306000A8BA0023FFF7B2BA734CC5F10F0504EB01
:10307000C501DDE90423D1E90001FDF78DFC0B9BBF
:103080005D1B04EBC504D4E90023FDF785FC06466F
:103090000F46C3E508958146FFF7ADBA674C00239C
:1030A000CDE90E34664C0023CDE91234C3E4119807
:1030B00064494B46B446B946AE46DDE90C67C3F3F6
:1030C000130200285ED08A4200F0F780002D38D12C
:1030D000049A1CEA020F37D03046394604930AF0AE
:1030E000D9FA0A9B04460D46002B00F02281049B6E
:1030F000C3F30A53C3F16B03002B40F35A811C0541
:1031000004F17F53002203F54013FDF745FC02460E
:103110000B4630463946FDF789FA1A9C06460F469B
:10312000494B304639460022FDF736FC0B46034337
:1031300008BF2223254606460F4608BFCBF80030BD
:1031400017E61EEA030FC7D11A9C0A9B2546002BDF
:10315000E6D10EE602F154730593FFF7C3BB3B497A
:1031600019A81CAA0BF0C6FF05287FF4BBAA1D9B5B
:1031700043F0FF4343F4E00305931C9B0493DDE914
:1031800004674BE5002A63D1DDE904452246002CA3
:1031900040F0A4800A9A002A40F0DE8025F0004426
:1031A000240D2405A4F580146FEA14536FEA035329
:1031B00005934FF0FF330493DDE904671A9DD8E5CA
:1031C000DDE90401119B0343B946DDE90C67BBD17E
:1031D000C1F31303002BB7D121F00044240D2405C3
:1031E000B4F1D66FA046AFD9089A536913B91369E1
:1031F000012BA9DD0899012258460AF001F9514630
:1032000008900AF075F900289EDD0A9B002BC9D0B2
:10321000A8F580136FEA13536FEA035305934FF039
:10322000FF330493DDE904671A9C79E71C6D0108FC
:10323000206D01080000F07FC03101080000E0BFF0
:103240000000E03FFFFF0F00000050392C6D010827
:10325000002D46D1049A1CEA020F3FF475AF3046A8
:10326000394604930AF016FA0A9B002B00F0888076
:10327000049BC3F30A53C3F16B03002B40F3B480E8
:103280001C0504F17F53002203F54013FDF784FB76
:1032900002460B4630463946FDF7C6F900220023A8
:1032A00006460F46FDF768FE00287FF435AE1A9CEF
:1032B00036E74FF0000AFFF7F6BADDE904010A9A93
:1032C00004461ABB024601326CD0BEF1000F7FF4F7
:1032D00038AF14EA0C0F3FF437AFFDE6BEF1000F34
:1032E000B9D01EEA030F3FF42FAFB8E74FF0FF321B
:1032F00002FA03F3049A1A4004927FE4C2F14B02EB
:103300004FF0FF3393400B40059377E4384A1A405F
:10331000B2F1D46F17D9611CD7D136498B423FF433
:103320004DAD02F58013059300230493DDE9046796
:103330000AE7304639462B462246FDF777F91A9DB3
:1033400006460F4615E5100DC0F16B004FF0FF313A
:1033500081408C42B9D1E4E7DFF8948003EA0808A1
:10336000B8F1D66F3FF654AF1A9DB8F15C7F2C468A
:103370003FF6D6AE2223CBF8003000260027F8E433
:1033800002460B4630463946FDF74EF91A9C00229C
:10339000002306460F462546FDF7EEFD00283FF4C4
:1033A000E8ACBAE5134A93423FF408AD01321A4043
:1033B000B7E73046394622462B46FDF737F91A9CC7
:1033C00006460F46ACE6082D994402DC6546FFF739
:1033D0000AB9BCF1100FDCBF0AEB8A0A01EB4A0AFA
:1033E00065460023FFF704B902460B4652E700BFCB
:1033F0000000F07FFFFFEF7F2DE9F3411D4DAC682A
:10340000636C13BB636B3BBBDFF868801A4C1B4ECD
:10341000AB689B69EBB101220DF10701404698476B
:10342000012816D19DF807200A2A01D00D2A18D1AB
:103430002368002B15DD0027F7541049104800229F
:10344000002304F0C5FF2760E2E7284698470028DC
:10345000D8D102B0BDE8F081064898470028D3D102
:10346000F7E72368B3F5FF7F9EBF591CF254216034
:10347000CEE700BF942B01087C0D0020A412002091
:10348000F8080020F8B50646FCF79AFE064F0546F8
:103490000024AC4200DBF8BD315DBB6802485B68CC
:1034A00098470134F5E700BF942B01082DE9F0415E
:1034B00007460E46FCF784FE0B2804461CD910F084
:1034C000010519D1DFF83880721907EB4500414634
:1034D000013506F0EFF8AC42F6D10A4B1E60B38816
:1034E0005BBA9AB2B380C2EB6403062B14BF6FF0D1
:1034F00001000020BDE8F0814FF0FF30FAE700BF87
:10350000266F0108700D002010B588B0044600F049
:103510005FFB00F063FB0021054B00911822019432
:1035200002A806F0A7F802A8FFF7ACFF08B010BD8C
:103530002C6F010810B5044688B000F049FB00F07C
:103540004DFB064B18220021CDE9004402A806F0ED
:1035500091F802A8FFF796FF08B010BD2C6F010884
:10356000F0B504468BB000F0AFFA00F031FB00F08C
:1035700085FA00F033FB204600F006FB0C4F661E78
:1035800000250F3416F8012F01AB5819394606F003
:1035900051F80235A642EDB2F4D101AB05495819F4
:1035A00006F0FCF801A8FFF76DFF0BB0F0BD00BFFF
:1035B0003B6F0108346F010808B583681B689847A2
:1035C000810705D409480DF068F84FF0FF3008BDB9
:1035D000820601D40648F6E7C30601D40548F2E79F
:1035E000054B32221A600020F1E700BF406F01084E
:1035F0008B6F0108E06F0108780D00202DE9F04184
:103600009EB000240CAE054621461C223046CDE972
:103610000244CDE9044405F09DFF234A234F12687C
:10362000ADF84E20102302AACDE90823CDE90A44C3
:1036300038680E951D44ADF84C30CDE906538268CC
:103640000F900123009354688DF830301A463146AC
:10365000A04730BB00F0BCFA0D9B0B9606A9304684
:1036600098470446C0B900F0B9FADFF8448025460F
:10367000089B1A5D14AB58194146013405F0DAFF76
:103680000235102CEDB2F3D114AB0A49581906F0EB
:1036900085F814A8FFF7F6FE3868836831469B6802
:1036A00098471EB0BDE8F081780D0020740D002011
:1036B0003B6F0108346F010808B52449FFF7F6FE97
:1036C00000283CD1224B18680378FE2B03D02148F8
:1036D000FFF7D8FE0BE04378862B0AD08A2B1CD04C
:1036E000802B2AD11C4A1D491D480CF0D6FF002012
:1036F00008BD8388022B01D01A48E9E78378022BA2
:1037000003D1C088FFF716FFF1E7042B03D1C0886F
:10371000FFF7FAFEEBE71448DAE78388202BEBD1BA
:103720008378022B03D10630FFF71AFFDFE7042B63
:10373000F1D10630FFF762FFD9E70C48C8E7431C18
:1037400001D10B48C4E70230D6D0D0E724120020C4
:10375000700D00203A70010841700108477001089F
:1037600055700108867001088D7001089470010879
:103770009B70010870B5ADF5007D3248324D04F004
:103780007DFC286038B92F4930480CF086FF0020B6
:103790000DF5007D70BD2E4C20460FF022F818B9B3
:1037A0002C480CF07AFFF2E72868FFF705FF024685
:1037B00008B12948F5E7A5686DB1AB6C5BB1274945
:1037C00020469847AB6A43B9254C20460FF009F8CC
:1037D00030B92448E5E72448E3E720469847F3E773
:1037E0002669A568336823F0200333602B684FF403
:1037F0002022052120469847002801DA1B48D0E7FF
:1038000033689B064FF020014CBF2B69EB682046C4
:103810009847002801DA1648C3E700F0C1F90028EC
:103820000EDB144C4FF0FF324FF0FF336946204659
:1038300004F01EFE0028AAD16846FFF73DFFF1E71D
:103840000D48AEE7A2700108740D0020AE700108AB
:10385000942B0108C9700108E0700108F9330008D1
:10386000802B01082B710108F870010848710108CC
:1038700069710108F80800208371010810B5074B31
:1038800007491B681A1F3C3352F8040F0C689A4210
:1038900080EA040041F8040BF6D110BD800D002031
:1038A0008C0D0020224B234A1968586952F82110C8
:1038B0001960196952F8200052F821101961196A2B
:1038C00052F821101962196B52F8211019635968C6
:1038D0005860586A52F8211052F820005861586B0D
:1038E0005963996852F8200052F821105862986A7A
:1038F0009962996952F8200052F821109860986BEB
:10390000996352F82000D96B98610B4852F8211046
:103910000160D86A52F82000D863D86952F82000B4
:10392000D862D868D96052F82020DA61704700BFA9
:103930008C0D0020D8360108840D0020F8B54C4AC3
:10394000136840331360FFF7ADFF4A4B4A4AD3E98F
:103950000006D3E9021480EA06074E4052F82750C9
:1039600084EA060C85EA0C0552F826601D6080EAA0
:103970000105654075405D60604081EA040552F8CC
:10398000200052F8255084EA0706794075404140EE
:10399000D3E90406D960D3E9061480EA06079D60DE
:1039A0004E4052F8275084EA060C85EA0C0552F87E
:1039B00026601D6180EA0105654075405D616040DB
:1039C00081EA040552F8200052F8255084EA0706DF
:1039D000794075404140D3E90806D961D3E90A141A
:1039E00080EA06079D614E4052F8275084EA060C93
:1039F00085EA0C0552F826601D6280EA01056540E3
:103A000075405D62604081EA040584EA070652F869
:103A1000255052F82000794075404140D3E90C060A
:103A2000D962D3E90E1480EA06079D624E4052F82F
:103A3000275084EA060C85EA0C0552F826601D63BF
:103A400080EA0105654075405D63604081EA0405D8
:103A500084EA070652F8255052F820207940754034
:103A60004A409D63DA63BDE8F840FFF707BF00BF37
:103A7000800D00208C0D0020D832010838B5104C84
:103A8000104B2360FFF7FAFE0025082D04D100F04B
:103A9000ABF8002804DA38BDFFF750FF0135F4E732
:103AA000FFF74CFF00F0A6F80028F4DBFFF7FAFE62
:103AB000236840332360BDE83840FFF7DFBE00BF16
:103AC000800D0020CC0D00202A4B2DE9F04F00F195
:103AD0000F02441E1D46194614F8016F45F8046B89
:103AE0009442F9D1244F10252C072FD0D3E90C4C48
:103AF000D3E90EE81E6884EA06095E68C3F84090C0
:103B00008CEA060A9E68C3F844A08EEA060BDE68BB
:103B1000C3F848B0043588EA0606B02DDE6403F128
:103B20001003E1D1154BC1E9AC9AC3E9004CC3E9DC
:103B300002E8134CC1E9AEB621601F3012F8011F34
:103B400043F8041B8242F9D1BDE8F08F2C11DFF855
:103B500034C05E6B013C57F826605CF8244074402A
:103B60009E6B57F826C0DE6B57F826E01E6B57F8A1
:103B70002680BFE7CC0D0020D83601088C0D002030
:103B8000800D0020B0320108044A431E0F3052F865
:103B9000041B03F8011F8342F9D170478C0D0020EC
:103BA00008B508480EF01DFE07480CF05AFD002825
:103BB00007DB04480EF015FE04480CF052FD00EA45
:103BC000E07008BD6C2B0108E03A0108D83A010802
:103BD000014801210CF031BDE03A01080148002103
:103BE0000CF02BBDE03A0108014801210CF025BD85
:103BF000D83A0108014800210CF01FBDD83A01084D
:103C0000014B1B68184700BF98060020014B186045
:103C1000704700BF9806002007B50B4600210246FA
:103C20000091034800F068F803B05DF804FB00BFA2
:103C3000013C0008F0B5094E016802460A27002041
:103C40000B4601311C78355D6D0701D41360F0BD62
:103C500007FB0043A3F13000F2E700BF956A0108BB
:103C60002DE9F84F15469A46D378224A12F803B048
:103C70006F2B80460F460BF0030B29D024D8582B0E
:103C80000CBF10260A26DDF8289032460023404655
:103C90003946FDF7E3F8092AD4B21ED83034B045CE
:103CA000E4B277F1000709F8014D01D3D14511D8ED
:103CB0002B789B0605D5082E15D1AB7843F0080369
:103CC000AB704846BDE8F88F03F0F703702BD7E7D9
:103CD0000826D8E780460F46D7E7BBF1010F0CBF97
:103CE00037345734DBE7102EEBD1AB7843F01003B9
:103CF000E6E700BF956A01082DE9F04F97B08A46C4
:103D0000039016461C460025307808B928464BE338
:103D1000731C2528049307D0039B5146984700281D
:103D2000C0F242830135F0E11822002110A805F00D
:103D300011FC7378252B00F0A3800023711C98469A
:103D40009E469C4618460F4611F8012B2B2A00F080
:103D5000C68000F2BD80202A00F0C480232A00F033
:103D6000C4802BB19DF8483043F040038DF84830B3
:103D7000B8F1000F05D09DF8483043F020038DF8CE
:103D80004830BEF1000F05D09DF8483043F01003D5
:103D90008DF84830BCF1000F05D09DF8483043F055
:103DA00008038DF8483028B19DF8483043F00403EB
:103DB0008DF848309DF8483003F04401442903D180
:103DC0006FF386138DF848309DF84830099743F01B
:103DD00080032A2A8DF8483040F08C809DF84930C5
:103DE00043F001038DF849307B1C1A782E2A9DF888
:103DF00049200CBF0121002161F341028DF84920C7
:103E00000CD15A1C09925A782A2A40F083809DF8D6
:103E1000492042F004028DF8492002331A786C2AB6
:103E200000F0A48000F28680682A00F08C806A2A64
:103E300000F0A5804C2A00F0AA801A4612F8013B37
:103E40000492782B9DF849208DF84B3000F21781B1
:103E50006D2B00F2A980692B00F21181572B00F223
:103E6000BE80412B03D0453B022B00F208819DF818
:103E70004A30042262F302038DF84A300123CAE07B
:103E8000B21C04928DF84B309DF84930D90740F1AF
:103E9000FD8054F8048BB8F1000F07DA9DF8482034
:103EA00042F004028DF84820C8F100085A0740F19A
:103EB000F68054F804BBBBF1000F80F2F5809DF84A
:103EC00049306FF341038DF849304FF0FF3BEBE091
:103ED0002D2A0DD0302A7FF444AF012333E74FF071
:103EE000010C30E74FF0010E2DE74FF001082AE7F3
:103EF000012028E709A8FFF79DFE099BBB423FF47C
:103F000074AF9DF848201390C00F60F341028DF804
:103F100048206AE709A8FFF78DFE9DF84830149005
:103F2000C3F3400242EAD07262F341038DF8483095
:103F3000099B73E7742A26D07A2A7FF47EAF9DF816
:103F4000492006210CE05A78682A9DF8492006D1BC
:103F5000012161F3C6028DF8492002336DE7022189
:103F600061F3C6028DF84920013366E75A786C2A5E
:103F70009DF8492001D10421EBE70321F0E79DF8EA
:103F800049200521ECE79DF849200721E8E7BDF825
:103F9000482022F4F04222F0020242F4804242F031
:103FA0000202ADF84820DFE76E3BD9B201238B4017
:103FB00040F282410B4238D113F0240F52D1DF0777
:103FC0005DD59DF84A30032161F302038DF84A3034
:103FD00002F07803A3F14000434243411BE0A3F108
:103FE0005801C9B2012000FA01F111F4624F7FF4C7
:103FF0003EAF40F6010739421DD111F4043F3ED0D7
:104000009DF84A3060F3020302F07802402A8DF8EE
:104010004A3034D000239DF84820C2F340010B43BE
:1040200063F341028DF848202EE79DF84A300221C3
:1040300061F30203E8E79DF84A10022002F07802DB
:1040400060F30201402A8DF84A1002BF9DF8481023
:1040500041F001018DF84810632BDBD1131E18BF0E
:104060000123D8E79DF84A30032161F3020312F0DF
:10407000780F8DF84A3014BF01230023CBE79DF859
:10408000483043F001038DF84830C3E79DF94820DC
:10409000002AB4BFDDF84C804FF0FF3806E79F07D9
:1040A0007FF513AFDDF850B09DF849100023CDE93E
:1040B00013339DF84A3003F00703012BC1F3C3010A
:1040C00033D1CB1E042B04D8DFE803F02146462170
:1040D0002100236801294FEAE372CDE910321CD197
:1040E0009DF94030DA17CDE9103204349DF848309C
:1040F00013F0030750D0049B0398324651460CF04E
:104100004CFB0028C0F250810544049EFCE554F8A5
:10411000043BDA17CDE91032E8E70229E5D11AB2FB
:1041200043F3C033CDE91023DFE7022B24D1CB1EAC
:10413000042B04D8DFE803F0181010181800012928
:1041400054F8043B4FF0000214D00229CDE910329C
:10415000CCD19BB21093C9E7073424F00704F4E8EC
:104160000223CDE91023C1E754F8043B1093002348
:104170001193BBE7DBB2CDE7042B08D1073424F061
:104180000704D4E900230834CDE91023AEE7032B5C
:10419000ACD154F8043BDDE79DF84B007828B4D847
:1041A00062281DD825283FF4B7AD5828ADD10DF1B0
:1041B0003E030093DDE910010AAB12AAFFF750FDA0
:1041C000BBF1000F814680F29980B9F1000F9CD0BD
:1041D0000DF13E06A6EB0903002F50D001334EE04F
:1041E0006338152891D801A252F820F06D420008DA
:1041F000D14200080B4100080B4100080B410008A8
:104200000B410008D14200080B4100080B41000897
:104210000B4100080B4100085D430008F74200080D
:104220001F4300080B4100080B41000845420008ED
:104230000B410008F74200080B4100080B41000841
:10424000F7420008BBF1000FDDF840900ADB594649
:10425000484605F001FBB9F1000F3FF456AF09EBFA
:10426000000677E04846FBF7ABFFF8E7109B8DF8B8
:10427000283000270DF129060DF1280901239DF8AA
:104280004A1011F01002069200F082800233139A55
:10429000059213444A0644BF14995B18B8F1000F05
:1042A00040F38F80A8EB03089DF848305807C3F30C
:1042B000800B00F18680590679D53FB1039B5146AA
:1042C0003846984700286FDB01355F4630236FE0A2
:1042D0001E075CBFC3F300135F01DDE9102348BF75
:1042E0002B27002BBFF663AF524263EB4303CDE9AC
:1042F00010232D275BE7002759E700279DF848107A
:104300000DF13E03A3EB09036FF386119B458DF876
:1043100048107FF65AAFABEB0303139355E71098A1
:1043200080B30DF13E060AAB009612AA0021FFF7FA
:1043300097FCBDF84A3003F0EF0343F4F04343F039
:104340001003BBF1000F8146ADF84A30D5DA0028E2
:104350003FF4DBAEA6EB0903002790E7109B07298B
:104360003FF6D3AEDFE801F00C04060C08080C0C95
:104370001D70CAE61D80C8E6EA17C3E90052C4E60C
:104380001D60C2E6304E0746A6F10509052376E713
:10439000080748BF01337AE7184607935146039B45
:1043A00098470028079B04DA17B0BDE8F08F202358
:1043B000C346594600290BF1FF3BEDDC45446D1A1D
:1043C000D84637B1039B5146384698470028EBDB67
:1043D00001359DF84A30DA0601D41B0706D5039B48
:1043E0005146302098470028DEDB0135069B3BB163
:1043F0009DF84B00039B514698470028D4DB0135BC
:10440000059F2F4406E0039B514630209847002823
:10441000CADB01357B1B002BF5DC039833464A468B
:1044200051460CF0BAF90028BEDB0544A844A8EBBD
:104430000503002B7FF769AE039B51462020984768
:104440000028B1DB0135F2E7AF710108024B034AE6
:104450001A600020704700BF0C07002000093D00D3
:10446000014910220A60704710ED00E072B640402A
:1044700080F31188BFF36F8FBFF34F8F30BF62B6E9
:10448000BFF36F8F704700BF40B2002807DB044ABC
:104490004109012300F01F00834042F8213070479A
:1044A00000E100E040B20028A8BF00F1604001F147
:1044B0000101B8BF064B4FEA0111ACBF00F56140E6
:1044C00000F00F00C9B2B4BF195480F80013704750
:1044D00014ED00E030BFFFF7FDBF00BF0F4A08B585
:1044E0000F4B22F07F029A60BFF34F8FBFF36F8FA5
:1044F000D3F8882022F47002C3F88820EFF31483E5
:1045000023F0040383F31488BFF36F8F03F024FEBA
:1045100004F032FB00F01AFA03F070FE000000080D
:1045200000ED00E0094A0A4993680968996709495A
:1045300058674B6843F080534B60002383F3118826
:10454000BFF36F8F9368986F704700BFBC11002056
:10455000786A010800ED00E012498A684FF03000E7
:104560001044EFF3098C80E8F01F102080F31288CC
:10457000BFF36F8F0C4F4FF000664A698A603E6050
:10458000506F0023536780F3118804B5104600F084
:1045900021FABDE8044002F1300090E8F01F8CF3EE
:1045A00009887047BC11002004ED00E01EF0040FE4
:1045B0000CBFEFF30880EFF30980816911F8021C4A
:1045C0000229FFD001B50CF004F901BD42F8203CEE
:1045D000009B42F81C3C0A49019B42F8183C029B94
:1045E00042F8143C21F001014FF0807342F8043C82
:1045F00042F8081C0023203A02654367704700BF59
:10460000B5060108094A0346906870B113F1160F08
:10461000406E05D0A0F140029A4205D8834203D2F1
:10462000814228BF0020704700207047BC11002045
:1046300008B5094B0D461446986000F0CBF92046AA
:1046400085F30988002163B681F31188BFF36F8F6A
:10465000002200230CF02EF8BC11002001B5EFF36E
:104660000580A0F110004FEAC0000449014409C9C7
:104670009847BDE80140024908470000D02B0108D7
:1046800085460008044B99685869884203D003495D
:104690004FF080520A607047BC11002004ED00E02A
:1046A00070B5264B15469A6A12F0100F9A6A14BF1D
:1046B0001124102412F0080F9A6A18BF12249207CE
:1046C00006460AD5586B9A6A140634D519B19A6A07
:1046D00022F080029A62132401E06FF01500174B5C
:1046E0009A6A12F0010F9A6A18BF142412F0200F70
:1046F0009A6A18BF1524D20602D49B6A9B070AD572
:104700000E4B5B68190506D53146FFF77BFF10B1EC
:1047100080F309880224094B9A6A920642BF5A6ABA
:1047200022F400525A629A6A42F0FF029A6200230F
:104730002B70204670BD6FF01500CCE700ED00E057
:10474000134B9A6A12F0007F9A6A14BF1E201D2034
:1047500012F0807F9A6A18BF1F2012F4002F9A6A05
:1047600018BF212012F4802F9A6A18BF222012F459
:10477000003F9A6A18BF232012F4803F9A6A6FEABA
:1047800002426FEA12429A6218BF2420704700BFAB
:1047900000ED00E010B5194B0246986A9C6A10F4CF
:1047A000805F14BF1720162014F4006F9C6A18BF96
:1047B0001820A40509D5986B986A000404D51AB18D
:1047C0009A6A22F400429A6219200C4B9A6A12F4F7
:1047D000806F9A6A18BF1A20D2050CD49B6A13F412
:1047E000005F18BF1C20054A936A43F47F4393621D
:1047F00000230B7010BD1B20F5E700BF00ED00E0AB
:10480000F0B5484B5B688BB00446C3F30803002542
:1048100085F31188BFF36F8F02F07F40B0F17F4FB7
:1048200011D102F00C0008280DD010074CBF0C4627
:1048300001250022033B8DF80720032B05D8DFE874
:1048400003F0246367602C46F3E700239DF80720FC
:10485000CAB902AE04F1200720686168324603C27B
:104860000834BC421646F7D1099A002D54D0C2F341
:10487000080121B96FEA52226FEA4222099202A985
:1048800018460BF0A4FF0BB0F0BD264BDA6A910777
:10489000DBD4DA6A002AD8DBDA6A5200D5D55A6945
:1048A000A16942F480725A61BFF34F8FBFF36F8FDB
:1048B0005A6931F8021C22F480725A61BFF34F8F9B
:1048C000BFF36F8F4DF6027291420AD09A6AD2B24C
:1048D0004AB10DF1070201212046FFF7E1FE034630
:1048E000B4E72368B2E79A6A12F47F4F05D00DF15E
:1048F00007010120FFF74EFFF1E79B6AB3F5803F08
:10490000A3D3FFF71DFFEAE70DF107020021E3E75C
:104910000DF107010020EDE722F4FF7222F0010201
:10492000ACE700BF00ED00E0024A536943F010031A
:104930005361704700ED00E0EFF30880EFF3098169
:1049400001B57246FFF75CFF01BD00BF04480023BC
:104950001021C2180133522B82F80013F9D170478D
:1049600000E100E0102080F3118808484FF4046152
:10497000401880F30988EFF314800221084380F384
:104980001488BFF36F8FFFF7A9FD0000C016002049
:10499000084B9B6883420BD1EFF3058343B1064B71
:1049A0005A6842F080525A605A6A22F400425A62AF
:1049B00004F082B8BC11002000ED00E0024B034A75
:1049C0000348012100F070B80080012000000020A1
:1049D000E83A0108426E054B403A1A60044A402109
:1049E000C3E901121846012100F068B88C100020BC
:1049F00000000B15F0B5204E00258D4239DA4468D1
:104A000074B353B104F1FF3C14EA0C0F2FD11F2CE7
:104A10002DD907681CEA070F29D1202C0768D0F888
:104A200008C05FFA82FE1ED9B4F1004F1DD8013CC8
:104A3000B4FA84F4C4F11F046400BEF1070F4CEA19
:104A4000040C14D827F01F04144344F01004C6F8D3
:104A50009820C6F89C404CF00104C6F8A0400132F2
:104A600001350C30C9E70824E7E73E24E5E76FF09D
:104A700015021046F0BD00BF00ED00E0044B05221A
:104A8000C3F89420BFF34F8FBFF36F8F704700BF01
:104A900000ED00E0BFF35F8F024B0022C3F89420CB
:104AA000704700BF00ED00E010B5034C01232278F1
:104AB000FFF7A0FF207010BDA414002008B5094A1C
:104AC00000231278FFF796FF10F1160F02D0064A66
:104AD000072800DD08BDC2F89800C2F8A0300130F8
:104AE000F6E700BFA414002000ED00E014490868B8
:104AF000082810B521D8FFF7CDFF124C49680022D5
:104B0000904201F10C0105D10F4B1870FFF7B6FF71
:104B1000002010BDC4F8982051F80C3C23F01F036E
:104B2000134343F01003C4F89C3051F8043C43F0A5
:104B30000103C4F8A0300132E2E74FF0FF30E8E7AC
:104B4000F43A010800ED00E0A4140020014B1860C5
:104B5000704700BFA0060020F8B5084F06460D4676
:104B60000024AC4208DA3B6898470A28305504F123
:104B7000010401D00D28F4D12046F8BD9C06002088
:104B8000F8B50A4F0D46461EC0F10104A3199D4217
:104B900001DC2846F8BD73780A2B02D13B680D2052
:104BA00098473B6816F8010F9847EFE7A0060020EA
:104BB00008B502480521FFF7E3FFFEE7B8710108D9
:104BC00010B5074C2368C2180648C0F1005101F522
:104BD000C0318A423ABF2260C0184FF0FF3010BD8A
:104BE00098100020C044002008B51D210448FFF79C
:104BF000C7FF404080F311884FF0030002DF00BF81
:104C0000BE71010808B504480BF047FD404080F331
:104C100011884FF0040002DFDC7101082DE9F0413A
:104C20000F4E104F054600244FF001082B7853FA21
:104C300084F01F280DDC726908FA00F333EA0202DF
:104C400007D1736157F830301BB107EBC0025168D0
:104C500098476A780134E3B29A42E7D2BDE8F0811E
:104C6000000401409C100020044B18440023013331
:104C7000994200F8012BFADC704700BFA20800201F
:104C800010B4064B064902460C681856012393409F
:104C900023430B6010BCFFF7F7BB00BFA208002046
:104CA000000401401F2806DC034901220B688240F2
:104CB00023EA02030B6070470004014003292AD84D
:104CC000DFE801F0020E141F134B012299688240A5
:104CD00021EA02019960D96821EA0202DA6070478C
:104CE0000D4B0122996882401143F3E70A4B0122E0
:104CF000D96882401143D960996821EA02029A601A
:104D00007047012303FA00F0034B9A6802439A604C
:104D1000DA681043D86070470004014030B50A4B90
:104D200053F830408C4204D103EBC0056D689542C6
:104D300005D034B943F8301003EBC0035A600020AB
:104D400030BD6FF00F00FBE79C100020034B0022EA
:104D500043F8302003EBC0035A6070479C100020DA
:104D6000024B1868C0F38020704700BF001002405B
:104D700010B51B4B18680B68072B144616D00A2B6E
:104D80000AD89BB1013B092B10D8DFE803F0240FB0
:104D9000162126180F0F0F1B582B10D009D8502B97
:104DA0000DD003D823F00403482B08D06FF0850002
:104DB00007E05C2B03D0602BF7E74FF40040206046
:104DC000002010BD00F0A8F8142358438008F6E72F
:104DD0004FF4FA40F3E70348F1E70020EFE700BFA4
:104DE0000C0700200024F40070B5454C454E00F03F
:104DF000A9F800F017FEA368434AC3F30313D35C7A
:104E000020FA03F5B54202D8404800F059FEFFF7FA
:104E1000A7FF012807D0236843F480732360FFF7BE
:104E20009FFF0128FBD1D4F8943043F00103C4F86C
:104E30009430D4F894309807FBD5354B1A6842F477
:104E400080721A601A68D105FCD5D4F8903043F00E
:104E50000103C4F89030D4F890309A07FBD52C4A5F
:104E6000136823F480731360A36803F00C030C2B06
:104E70001AD1FFF775FF012807D0236843F4807328
:104E80002360FFF76DFF0128FBD1A36823F0030324
:104E900043F00103A360A36803F00C03042BFAD1D1
:104EA000A36823F0F003A360236823F080732360DA
:104EB00000F036F8236843F08073236023689B0179
:104EC000FCD5A36823F0F003A360A36843F00303B9
:104ED000A360A36803F00C030C2BFAD1B54202D9EE
:104EE0000A4800F0EDFD0B4B084A1A60A36823F452
:104EF000E063A360A36823F46053A360002070BD47
:104F000000100240FFB3C404E172010800B4C404FD
:104F1000007000400C070020004870470024F40097
:104F2000054B0649DA681140054A0A43DA60DA6837
:104F300042F08072DA607047001002408C80FFF906
:104F400002140002064B9A6D42F080529A659B6DE6
:104F500082B003F080530193019B02B0704700BF01
:104F60000010024008B507480DF03BFC38B1064878
:104F7000FFF7ECFD0448FEF749FE002008BD6FF086
:104F80001200FBE7942B01088D4F00080A2838B562
:104F9000074D044604D1AB680D215B68284698474D
:104FA000AB6803485B68E1B29847204638BD00BF54
:104FB000942B0108094B93F8880118B193F8182332
:104FC00042B901204FF4C87202FB0033012283F87A
:104FD000882170474FF0FF30704700BF2009002044
:104FE00070B5CB8933F499750C4616461CD1511E09
:104FF000C9B2032918D8FFF7DDFF031E17DB0D48E0
:105000004FF4C87202FB0300012980F889616060D7
:10501000257305D80DF041FA074BA360002070BD41
:105020000DF0F6FA054BF8E76FF01500F7E76FF0B3
:105030001B00F4E720090020F30A01089B0A01087D
:105040002DE9F843B1F81E809DF8209038F4997846
:105050000C461E4639D1012A37D1042B0AD18B8B3D
:10506000102B32D1FFF7A6FF051E6FDA6FF01B0081
:10507000BDE8F883022B46D0052B29D0012B24D183
:105080008B8B102B21D1FFF795FF051EEEDB414FD7
:105090004FF4C87808FB057840460CF084F9A28BE1
:1050A000A168B9F1010F4FEAC202404646D100F0B3
:1050B0007BFD394B6360002862D04FF4C87202FB5D
:1050C00005770023636087F888316FF01500CFE71C
:1050D0008B8B102BF9D1FFF76DFF051EC6DB2D4F13
:1050E0004FF4C87303FB057738460CF0FBFEA38B27
:1050F000A268DB00022138460CF0F9FE002835D109
:10510000264B274A37E08B8B102BDED1FFF752FF5F
:10511000051EABDB1F4F4FF4C87808FB05784046EF
:105120000CF041F9A28BA168B9F1010F4FEAC2025C
:10513000404607D100F038FD1A4BBBE700F000FEF7
:10514000194BB7E700F0FCFD184BB3E7114F4FF4D4
:10515000C87303FB057738460CF018FAA38BA268D6
:10516000DB00022138460CF015FA10B187F888816F
:10517000ABE70F4B0F4AB9F1010F08BF134663604D
:10518000044B4FF4C87202FB0533002083F8896199
:1051900023616DE720090020D9090108750B01087A
:1051A000C70B0108AF0C0108FF090108250A010817
:1051B000150C0108670C010838B5036904465860EE
:1051C0000A4D28460DF00DFB68B1094A536843F4B7
:1051D000007353606168AB680C311B6828469847C0
:1051E00000EAE07038BD6FF01200FBE7B82A010852
:1051F00000700040F7B51746B7F5001F4668026912
:105200000C461D4624D101F00302043292000F2304
:10521000934043EA9103DAB23349023251F8222033
:10522000190C02EA134391FAA1F2B2FA82F2D340C6
:10523000B2689A4209D12046FFF734FD2046FFF7B5
:1052400085FD00212046FFF739FD002003B0F0BDA9
:10525000B7F5800F41D025492046FFF75FFD0028B4
:105260003ED1234AB66892E803006B4683E8030008
:1052700020488268194612689047C0B904F00303B9
:1052800004339B000F229A4042EA9402D3B29B005F
:1052900003F1804303F58033110C986820EA124033
:1052A00091FAA1F2B2FA82F2964006439E60B5F1FD
:1052B000806F0ED0B5F1C06F0DD005F17E4359421D
:1052C000594149002046FFF7F9FC2046FFF7D8FC7A
:1052D000BBE70121F6E70321F4E76FF08500B5E7AE
:1052E0006FF00F00B2E700BF00000140310F01086E
:1052F000902E0108B82A01082DE9F0471E4F0446F8
:1053000000EBC1060025B44201D1002014E0206862
:10531000C30600F01F0911D4656845F02005C0F3ED
:10532000471AC0F343200A2823D857F82080B8F141
:10533000000F0DD16FF01200BDE8F087B9F1100F2A
:1053400004D0B9F1110FEAD16568E8E73025E6E746
:1053500040460DF046FA0028ECD04B462A460AF0AB
:105360000F0140460BF0FBFD002804F10804CADAE7
:10537000E2E76FF01500DFE7D83B010842681168EB
:1053800001F1080353E8003F43F0010301F1080C69
:105390004CE800300028F3D1136810498B420FD03D
:1053A000A1F574418B420BD001F580618B4207D08F
:1053B00001F580618B4203D001F580618B4203D1FE
:1053C000596841F040015960126852E8003F43F4C7
:1053D000807342E800310029F7D17047003801405E
:1053E0004268116801F1080353E8003F23F001030C
:1053F00001F1080C4CE800300028F3D11368104983
:105400008B420FD0A1F574418B420BD001F5806126
:105410008B4207D001F580618B4203D001F580619A
:105420008B4203D1596821F040015960126852E85B
:10543000003F23F4807342E800310029F7D1704720
:1054400000380140F8B503690C465D68237941686E
:10545000012B16D09F1E7E427E41B6026279022A3F
:105460009CBF454F37F81270A27988BF4FF40057A0
:10547000022A09D0042A2FD0003B18BF01231B03A6
:1054800006E04FF4C066E9E7B3FA83F35B091B0754
:10549000E2790968012A14BF4FF0000C4FF4407CF8
:1054A000A5421CD10A6822F0805222F4B052324345
:1054B0001A430A604B6823F440533B434B604368F4
:1054C0001A68936823F4407343EA0C0393602968D5
:1054D000BDE8F8400BF0A3BD4FF48053D8E7D1F8F6
:1054E00000E00EF4C06E76451FBFD1F800E02EF448
:1054F000C06E4EEA06060E6041680E68716801F4DF
:1055000040518F421FBF716821F44051394371608F
:1055100041680E68316801F010218B421FBF31686D
:1055200021F010210B433360436819688B6803F442
:1055300040739C451FBF8B6823F4407343EA0C0300
:105540008B6043681B689968490405D5032A09D014
:105550009A6822F4804204E0032A03D19A6842F454
:1055600080429A6021682B68994203D00BF057FD66
:1055700023682B60F8BD00BF206F0108F7B50469F0
:1055800046680546534820600DF02BF918B96FF0B6
:10559000120003B0F0BD2068F16883681B6898476B
:1055A0000028F6DBF06901AA00210BF0EDFC0028D1
:1055B000EFDB019B002219791868FFF79DFE002898
:1055C000E7DB6C682B6922685F68136823F00103CE
:1055D000136060680DF005F90028D8D0D4E9010106
:1055E0008368DB6803B19847226852E8003F43F0C4
:1055F0000C0342E800310029F7D139462846FFF76D
:1056000021FF237D23B12268936843F00803936050
:10561000637D23B12268536843F400435360A37D44
:1056200023B12268536843F480335360E37D23B190
:105630002268536843F400335360227E2368002AB3
:1056400033D0254A934213D0A2F5744293420FD02F
:1056500002F5806293420BD002F58062934207D03C
:1056600002F58062934203D002F5405293422DD15D
:105670006B681A68936843F4804393602268617E84
:10568000136823F0787343EA415313602268A17EC4
:10569000136823F4F81343EA01431360E37E23B154
:1056A0002268936843F4004393602268136843F0D0
:1056B000010313602368DA699102FCD5DA695202AA
:1056C000FCD52846336A9847002062E76FF0150042
:1056D0005FE700BFB82A010800380140F8B502466C
:1056E0000369466808795D6891F805E08B790128BF
:1056F0000C461CD1BEF1020F6BD9022B1F464FF492
:10570000C0614FF4005C7CD0042B75D020B1C31E67
:10571000012B73D94FF48050BCF5805F7BD0BCF572
:10572000405F7AD0BCF1000F1CD101231BE002289E
:105730000AD1BEF1020F58D9022B1F464FF48061E7
:105740000BD04FF4005CDFE7BEF1020F50D9022B03
:105750001F464FD100285AD00021C31E012B4DD91E
:10576000002002270323734548D10BF074FCB84294
:1057700044D1E379CBB1012B51D1336829498B4214
:1057800013D0A1F574418B420FD001F580618B429B
:105790000BD001F580618B4207D001F580618B420F
:1057A00003D001F540518B4228D131680B6823F0BA
:1057B00001030B6010462146FFF744FE3268136870
:1057C00043F00103136094E8030085E80300002020
:1057D000F8BD4FF4C061144F022B37F81EC01F46AE
:1057E00092D170B94FF0805096E74FF48061F2E7A4
:1057F0000021F0E70021A4E700288BD06FF085009E
:10580000E6E7C31E012BF9D90227002084E70146F1
:105810004FF08050A6E70023A5E70223A3E7032B60
:10582000ABD0EBE700380140206F010810B54FF016
:10583000E0239A6919699869094B11F4803F094975
:1058400001D1824206D21A680C6822441A604FF0D5
:10585000E02212691B680A681344181A10BD00BFC1
:105860009C110020A0110020094B102283F8232056
:10587000084B41F63F721A60074B002018604FF04A
:10588000E0235A6198611A6942F007021A61704771
:1058900000ED00E0A01100209C11002010B5FFF7E2
:1058A000C5FF104B1049D3E900420868001942F1C6
:1058B0000002C3E900020D4A00230B60D2E9004157
:1058C0004FF4FA53001BB0FBF3F043431B1941F1B3
:1058D0000001C2E9003103F025FABDE81040FEF7EF
:1058E000D1BE00BF480C00209C110020400C0020BD
:1058F0002DE9F041374F00295CD0421C0AD14FF00E
:10590000E022136923F0010313614FF07F433B60F2
:10591000BDE8F0813E68012852DDB0F5036F52DC2E
:1059200000F1FF384FF01003EFF3118583F3128875
:10593000BFF36F8FFFF77AFF27494FF0E0239A6993
:10594000D1E90043001943F10003C1E90003234BEF
:1059500000241C60224B1B68C41A37D44FF4FA5C35
:105960000CFB084404F5F954181A1F34B4FBFCF47A
:105970000CFB0400B0F5806F28D91A4B984228BF61
:1059800018464FF0E023386001389C6958610020C8
:105990009861A242A2EB0403D1E9000238BF9B192F
:1059A0001B1842F10002C1E9003285F31188BFF3F0
:1059B0006F8FADE7431C3E68ADD14FF40360AFE796
:1059C0004FF00008AEE74FF40368ABE74FF4806098
:1059D000D7E700BFA0110020480C00209C11002038
:1059E000400C002000DCFF0038B54FF01003EFF34F
:1059F000118583F31288BFF36F8F084B1C68084B27
:105A00001B68E41AFFF712FF85F31188BFF36F8F4D
:105A10004FF4FA532044B0FBF3F038BD480C00209B
:105A2000400C0020224B9A68D96812F00C0205D075
:105A30000C2A15D101F00301012918D119681D485C
:105A4000090755BFD3F894101968C1F30321C1F3B6
:105A5000031150F8210012B10C2A09D00020704720
:105A6000042A22D0082A144818BF002070470020BA
:105A7000DA6802F00302022A15D00F49032A08BF90
:105A80000846D968DA68C2F306224243D868C0F3F0
:105A90004160C1F30211013001314000B2FBF1F26B
:105AA000B2FBF0F070470548EBE70448704700BFD1
:105AB00000100240FC3C010800127A000024F400AF
:105AC0001F4B421E9A4201D9012070471D4B1B6893
