:020000040800F2
:1000000000800120D9410008D92F0008E72F0008FF
:10001000ED2F0008F32F0008F92F00080000000062
:10002000000000000000000000000000FF2F00089A
:100030000D300008000000001B30000829300008C7
:100040002142000821420008214200082142000804
:1000500021420008214200082142000821420008F4
:1000600021420008214200082142000821420008E4
:1000700021420008214200082142000821420008D4
:1000800021420008214200082142000821420008C4
:1000900021420008214200082142000821420008B4
:1000A00021420008214200082142000821420008A4
:1000B0002142000821420008214200082142000894
:1000C0002142000821420008214200082142000884
:1000D0002142000821420008214200082142000874
:1000E0003530000821420008214200082142000862
:1000F0002142000821420008214200082142000854
:100100002142000821420008214200082142000843
:100110002142000821420008214200082142000833
:100120002142000821420008214200082142000823
:100130002142000821420008214200082142000813
:100140002142000821420008214200082142000803
:1001500021420008214200082142000821420008F3
:1001600021420008214200082142000821420008E3
:10017000214200082142000821420008000000003E
:100180002142000821420008FFFFFFFFFFFFFFFFA1
:1001900053B94AB9002908BF00281CBF4FF0FF31EE
:1001A0004FF0FF3000F00CB8ADF1080C6DE904CE53
:1001B00004F038F8DDF804E0DDE9022304B070470C
:1001C000704700BF000000000000000000000000B9
:1001D00001F0FF01102A2BDB10F0070F08D010F8F8
:1001E000013B013A8B422DD010F0070F42B3F6D1FC
:1001F000F0B441EA012141EA014122F007047FF015
:1002000000070023F0E80256083C85EA010586EA6B
:10021000010685FA47F5A3FA87F586FA47F6A5FAA7
:1002200087F68EB9EED1F0BC01F0FF0102F00702B3
:1002300032B110F8013B013A83EA010313B1F8D15E
:100240000020704701387047002D06BF354603383F
:10025000073815F0010F07D1013015F4807F02BF78
:10026000013015F4C03F0130F0BC0138704700BFC9
:100270000348044B834202D0034B03B11847704735
:100280009004002090040020000000000548064B68
:100290001B1AD90F01EBA301491002D0034B03B184
:1002A00018477047900400209004002000000000D0
:1002B00010B5064C237843B9FFF7DAFF044B13B1AE
:1002C0000448AFF300800123237010BDA005002077
:1002D00000000000BC4D000808B5054B1BB10549E6
:1002E0000548AFF30080BDE80840FFF7CFBF00BF6F
:1002F00000000000A4050020BC4D000870B50D4EA4
:100300000D4D761BB61006D0002455F8043B013481
:100310009847A642F9D1094E094D761B04F04EFDCF
:10032000B61006D0002455F8043B01349847A64285
:10033000F9D170BDB8560008B8560008BC56000880
:10034000B8560008830730B548D0541E002A3FD065
:10035000CAB2034601E0013C3AD303F8012B9D07E2
:10036000F9D1032C2DD9CDB245EA05250F2C45EA4C
:10037000054536D9A4F1100222F00F0C03F1200E2E
:10038000E6444FEA121C03F1100242E9045542E927
:10039000025510327245F8D10CF1010214F00C0F25
:1003A00003EB021204F00F0C13D0ACF1040323F0A2
:1003B00003030433134442F8045B9342FBD10CF073
:1003C00003042CB1C9B21C4403F8011B9C42FBD1AD
:1003D00030BD64461346002CF4D1F9E703461446B9
:1003E000BFE71A46A446E0E780B483B000AF786068
:1003F000022318460C37BD465DF8047B70470000A9
:00000001FF
